:0A0000000205A412078B1207AD22BF
:10000B000206F18B1B8A1C891D7B007A007900C0CC
:10001B0003C002C001AB1BAA1CA91DD082D083D088
:10002B00E06B7008E965827003EA65837003020177
:10003B007F782776007827E6FF7E00C3EF9406EEE5
:10004B0064809480503E7827E6FFEF75F008A42477
:10005B0005F582E43400F583E0FBA3E0FAA3E0F9B5
:10006B00C003C002C001AB1BAA1CA91DD082D08348
:10007B00D0E06B7008E965827003EA6583600578F0
:10008B00270680B17827E6FF7E00EF64064E7003EB
:10009B0002017F7827E6FF1206307827E6FF7E0005
:1000AB00EF2401FFEE3400FEC3EF9406EE64809460
:1000BB0080400302017F7827E6FFEF75F008A42448
:1000CB0008F582E43400F583E0FF7827E6FEEE7551
:1000DB00F008A42400F582E43400F583EFF07827D0
:1000EB00E6FFEF75F008A42409F582E43400F583EC
:1000FB00E0FEA3E0FF7827E6FDED75F008A42401F0
:10010B00F582E43400F583EEF0A3EFF07827E6FFF9
:10011B00EF75F008A4240BF582E43400F583E0FEC0
:10012B00A3E0FF7827E6FDED75F008A42403F58224
:10013B00E43400F583EEF0A3EFF07827E6FFEF75DC
:10014B00F008A4240DF582E43400F583E0FBA3E072
:10015B00FAA3E0F97827E6FFEF75F008A42405F57C
:10016B0082E43400F583EBF0A3EAF0A3E9F07827FF
:10017B00060200A522151F151FA81FEEF208EFF2AD
:10018B00E51F24FAF51FE51F2406F8E2FE08E2FF3F
:10019B00C3EF94E8EE9403402EE51F2406F8E2FE2D
:1001AB0008E2FF7C037DE812051612069CE51F246E
:1001BB0006F8C000E2FE08E2FF7C037DE81205169C
:1001CB00D000ECF208EDF2AF1AAE19AD18AC17A8CF
:1001DB001F12059212072FE51F2404F8EEF208EF09
:1001EB00F2E51F2404F8E2FE08E2FFC374E79FFF69
:1001FB0074039EFEE51F2406F8E2FC08E2FDC3EF44
:10020B009DEE9C4019E51F2406F8E2FE08E2FFE58F
:10021B001F2404F808E22FF218E23EF2805AE51F81
:10022B002404F8E2FE08E2FFC3E49FFFE49EFEE530
:10023B001F2406F8E2FC08E2FDC3ED9FFFEC9EFED7
:10024B00EF2418FFEE34FCFEE51F2404F8EEF20851
:10025B00EFF2A81FE2FC08E2FD08E2FE08E2FF7BDA
:10026B00017A0079007800EF2BFFEE3AFEED39FDB5
:10027B00EC38FCA81F120592A81FE2FC08E2FD084F
:10028B00E2FE08E2FFAB1AAA19A918A817C31205B8
:10029B008140E5A81FE2FC08E2FD08E2FE08E2FF50
:1002AB00AB1AAA19A918A817C31205817014120743
:1002BB002FE51F2404F8E2FC08E2FDC3EF9DEE9C42
:1002CB0040B6E51F2408F51F228E108F118C128D5E
:1002DB00138B148A158916782676007826E6FF7E0E
:1002EB0000C3EF9406EE64809480503E7826E6FFC0
:1002FB00EF75F008A42405F582E43400F583E0FBE8
:10030B00A3E0FAA3E0F9C003C002C0017B007A00AE
:10031B007900D082D083D0E06B7008E965827003DE
:10032B00EA6583600578260680B17826E6FF7E00B5
:10033B00EF64064E70030203C4E511451070047F91
:10034B000180027F007826E6FEEE75F008A42400FB
:10035B00F582E43400F583EFF0E51145106006AE4D
:10036B0010AF118004AE12AF137826E6FDED75F0D9
:10037B0008A42401F582E43400F583EEF0A3EFF03A
:10038B007826E6FFEF75F008A42403F582E4340029
:10039B00F583E512F0A3E513F0AB14AA15A91678B3
:1003AB0026E6FFEF75F008A42405F582E43400F58A
:1003BB0083EBF0A3EAF0A3E9F02278287600782803
:1003CB00E6FF7E00C3EF9406EE6480948040030248
:1003DB0004767828E6FFEF75F008A42401F582E493
:1003EB003400F583E0FEA3E0FFEF4E60787828E65B
:1003FB00FFEF75F008A42401F582E43400F5837453
:10040B00FF75F0FF12056B7828E6FFEF75F008A477
:10041B002401F582E43400F583E0FEA3E0FFEF4E08
:10042B0070437828E6FFEF75F008A42403F582E407
:10043B003400F583E0FEA3E0FF7828E6FDED75F0D0
:10044B0008A42401F582E43400F583EEF0A3EFF069
:10045B007828E6FFEF75F008A42400F582E4340059
:10046B00F5837401F07828060203C9227829E6FF88
:10047B00EF75F008A42400F582E43400F583E0FF67
:10048B007E00EF64014E706C7829E6FFEF75F00883
:10049B00A42405F582E43400F583E0FBA3E0FAA382
:1004AB00E0F912059E7829E6FFEF75F008A4240009
:1004BB00F582E43400F583E4F07829E6FFEF75F07C
:1004CB0008A42403F582E43400F583E0FEA3E0FFE7
:1004DB00EF4E70207829E6FFEF75F008A42405F5A0
:1004EB0082E43400F583E0FBA3E0FAA3E0F9120009
:1004FB000E782916782906E6FF7E00C3EF9406EEE8
:10050B006480948040047829760022BC000BBE00E6
:10051B0029EF8DF084FFADF022E4CCF875F008EFF5
:10052B002FFFEE33FEEC33FCEE9DEC984005FCEE1A
:10053B009DFE0FD5F0E9E4CEFD22EDF8F5F0EE844B
:10054B0020D21CFEADF075F008EF2FFFED33FD4010
:10055B0007985006D5F0F222C398FD0FD5F0EA228A
:10056B00C5F0F8A3E028F0C5F0F8E582158270021B
:10057B001583E038F022EB9FF5F0EA9E42F0E99DFF
:10058B0042F0E89C45F022ECF208EDF208EEF2089E
:10059B00EFF2228A838982E473787FE4F6D8FD75C3
:1005AB0081290205EB0207CEE493A3F8E493A34061
:1005BB0003F68001F208DFF48029E493A3F85407D3
:1005CB00240CC8C333C4540F4420C8834004F456CE
:1005DB00800146F6DFE4800B010204081020408006
:1005EB00900807E47E019360BCA3FF543F30E509FC
:1005FB00541FFEE493A360010ECF54C025E060A806
:10060B0040B8E493A3FAE493A3F8E493A3C8C58298
:10061B00C8CAC583CAF0A3C8C582C8CAC583CADF06
:10062B00E9DEE780BE8F1EAF1E7E00C3EF9406EEA1
:10063B0064809480505AAF1EEF75F008A42400F527
:10064B0082E43400F583E4F0AF1EEF75F008A424C8
:10065B0001F582E43400F583E4F0A3E4F0AF1EEF80
:10066B0075F008A42403F582E43400F583E4F0A3C9
:10067B00E4F07B007A007900AF1EEF75F008A4243C
:10068B0005F582E43400F583EBF0A3EAF0A3E9F07F
:10069B0022151F151FA81FEEF208EFF2E51F24FC11
:1006AB00F51FE51F2404F8E2FE08E2FFE4FCFDEF72
:1006BB00251AFFEE3519FEED3518FDEC3517FCA8A4
:1006CB001F120592A81FE2FC08E2FD08E2FE08E2F9
:1006DB00FFAB1AAA19A918A817C312058140E5E5A3
:1006EB001F2406F51F22C0E0C0F0C083C082C0D01B
:1006FB0075D008AF1AAE19AD18AC177B017A00791B
:10070B00007800EF2BF51AEE3AF519ED39F518ECE8
:10071B0038F5173000031203C5D0D0D082D083D068
:10072B00F0D0E032782176D1087620782376000855
:10073B00760CAF8C7E00EF7F00FEAD8A7C00EE4C1A
:10074B00FEEF4DFF7821E6FC08E6FDC3EF9DFFEEC3
:10075B009CFE7823E6FC08E6FD120516227BFF7A49
:10076B000779EF7D147C007F007E001202D47BFFA3
:10077B007A0779FB7D0A7C007F0A7E001202D42265
:10078B00782576007825E6FF7E00C3EF9406EE64AD
:10079B00809480500C7825E6FF1206307825068071
:1007AB00E322751A00751900751800751700C20041
:1007BB00438E805389F0758A20758CD1D2A9D2AF24
:1007CB00D28C221200031207E012076812080B12D8
:1007DB00047780FB227E007F001201807E007F0069
:1007EB0012069C22B2907E007F0212069C80F5229C
:1007FB00B2917E007F0512069C80F5220129000034
:03080B00D20022F6
:00000001FF
