:03000000021D07D7
:10000B00021777750C10750D93150DAF0DEF70F979
:10001B00150CAF0CEF70F222021C1F759850759ADD
:10002B001075D7E675D6FF438E15D2AC43AF01D210
:06003B00AFC213C2122245
:10004300021BA6E5522446F8E605522278433010F7
:10005300027846E475F001120B180209082009EB37
:100063007F2ED2098018EF540F2490D43440D4FF4C
:10007300300D0BEF24BFB41A0050032461FFE55386
:10008300600215530556E5567002055530100D787C
:1000930043E475F001120B18EF020B06021BF87410
:1000A30003D2108003E4C210F5528B438A4489457E
:1000B300E4F553F555F556E55360077F20120081AB
:1000C30080F57554FFC20AC209C20BC20CC20EC22C
:1000D3000FC21112004FFF700D3010057F00120088
:1000E30092AF56AE5522B4255FC2D5C20D12004F52
:1000F300FF24D0B40A00501A75F00A785330D5059E
:1001030008B6FF0106C6A426F620D5047002D20C59
:1001130080D924CFB41A00EF5004C2E5D20D0202F5
:1001230092D20A80C6D20980C0D20B80BCD2D580BD
:10013300BAD20E80B47F20120081200B077401B560
:10014300530040F1120046FF1200810200BAD2119F
:10015300D20F8095120046FB120046FA120046F9B0
:100163004A4B700679637A037BFF200B2EE55360BD
:100173002A7E008E82758300120AD960060EEE6510
:100183005470F0C2D5EBC0E0EAC0E0E9C0E0EE1283
:1001930002D9D0E0F9D0E0FAD0E0FB120908FF6001
:1001A300AAEBC0E0EAC0E0E9C0E0120081D0E0249D
:1001B30001F9D0E03400FAD0E0FBE5540460DCD56B
:1001C30054D980877BFF7A0279D5D20B809C791032
:1001D30080027908C20FC2118008D2D5790A80043F
:1001E300790AC2D5E554047002F554E4FAFDFEFF22
:1001F300120046FC7B08200A13120046FD7B1030D8
:10020300090A120046FE120046FF7B20EC3382D51A
:1002130092D55013C3E43009069FFFE49EFEE42009
:100223000A039DFDE49CFCE4CBF8C20AEC700CCFFE
:10023300CECDCCE824F8F870F38017C3EF33FFEE8C
:1002430033FEED33FDEC33FCEB33FB994002FB0F44
:10025300D8E9EB300A05F8D0E0C448B20AC0E00A96
:10026300EC4D4E4F78207B0070C2EAB5540040BC81
:10027300C0E01202DBD0F0D0E0200A04C4C0E0C426
:10028300B20AC0F012006AD0F0D5F0EB0200BA1245
:100293000A4401575301D15801284C01244201D586
:1002A3004F01DD4401DD49013D4301E35501C746EB
:1002B30001C74501C747038350012C2D01302E018F
:1002C300532B013423015120036C2A00EC48000016
:1002D300014B3F3F3F00790AA2D5200C14300E0991
:1002E300B910020404B9080104A2D5200F02500179
:1002F30004200B68920BB553005034C0E07F2030CC
:100303000C197F30A20B720F720E500F120332C200
:100313000BC20FC20EC2117F30800F300E03E9C033
:10032300E0120081300E03D0E0F9D0E0B553CC30B9
:100333000E177F30B9100C1200817F58300D077FE4
:10034300788003B90803120081300B057F2D02006A
:10035300817F202011F87F2B200FF322920B80CF77
:10036300286E756C6C2900D20A120046300AF8C256
:100373000A785330D50108F60200EC2D5043495852
:100383001200462403B405004001E490037E931257
:100393000072743A120072D20C7553040201D190A8
:1003A3000018EEF0A3EFF0900018E0FEA3E0FF4E7C
:1003B30070030206E6900018E0A3E0F5828E83E066
:1003C300FBA3E0FAA3E0F9AE02FF90001AEEF0A35C
:1003D300EFF090001AE0FEA3E0FF4E70030206E682
:1003E30090001AE0A3E0F5828E832407F582E5836B
:1003F3003400F583E0FF640560030206BA90001A37
:10040300E0A3E0FFAA06F97B01A3EBF0A3EAF0A3C4
:10041300E9F0900018E0FEA3E0FFF5828E83E0FB95
:10042300A3E0FAA3E0F9C003C002C00190001AE000
:10043300FEA3E0FFAA06F97B01D082D083D0E06B54
:100443007008E965827003EA658360030204D4904F
:10045300001AE0FEA3E0FFF5828E832412F582E505
:10046300833400F583E0FBA3E0FAA3E0F9900018DE
:10047300E0FEA3E0FFF5828E83EBF0A3EAF0A3E9AD
:10048300F0900018E0FEA3E0FFF5828E832406F5CA
:1004930082E5833400F583E014F0900018E0FEA3B6
:1004A300E0FFF5828E832406F582E5833400F5832D
:1004B300E0FF600302060DFBFAF9900018E0A3E0E9
:1004C300FFF5828E83A3A3A3EBF0A3F0A3F00206B0
:1004D3000D900018E0FEA3E0FFF5828E83A3A3A393
:1004E300E0FBA3E0FAA3E0F9C003C002C00190005F
:1004F3001AE0FEA3E0FFAA06F97B01D082D083D0E5
:10050300E06B7008E965827003EA658370519000BF
:100513001AE0FEA3E0FFF5828E83240FF582E583C4
:100523003400F583E0FBA3E0FAA3E0F9900018E0C0
:10053300FEA3E0FFF5828E83A3A3A3EBF0A3EAF06F
:10054300A3E9F0900018E0FEA3E0FFF5828E832478
:1005530006F582E5833400F583E014F002060D907E
:10056300001AE0FEA3E0FFF5828E832412F582E5F4
:10057300833400F583E0FBA3E0FAA3E0F9C003C0F2
:1005830002C00190001AE0A3E0F5828E83240FF5E8
:1005930082E5833400F583E0FBA3E0FAA3E0F97579
:1005A30082127583001209EB90001AE0FEA3E0FFAC
:1005B300F5828E83240FF582E5833400F583E0FB17
:1005C300A3E0FAA3E0F9C003C002C00190001AE05F
:1005D300A3E0F5828E832412F582E5833400F5834C
:1005E300E0FBA3E0FAA3E0F975820F75830012091B
:1005F300EB900018E0FEA3E0FFF5828E832406F55E
:1006030082E5833400F583E014F090001AE0FEA342
:10061300E0FFF5828E832412F582E5833400F583AF
:10062300E0FBA3E0FAA3E0F9AE02FF90001AEEF0BC
:10063300A3EFF0A3E0FBA3E0FAA3E0F9758203754F
:100643008300120976FFAEF0AA06F97BFF150E159B
:100653000E150EA80EEBF208EAF208E9F290001C60
:10066300E0FBA3E0FAA3E0F9150E150E150EA80E94
:10067300EBF208EAF208E9F27BFF7A1D79607F006A
:10068300121424E50E2406F50E90001CE0FBA3E0F3
:10069300FAA3E0F9758205758300120976FFAEF0BF
:1006A30012167390001CE0FBA3E0FAA3E0F9AE027C
:1006B300FF1216730203D590001AE0FEA3E0FFF5C4
:1006C300828E832412F582E5833400F583E0FBA355
:1006D300E0FAA3E0F9AE02FF90001AEEF0A3EFF008
:1006E3000203D522900004EBF0A3EAF0A3E9F0A300
:1006F300ECF0A3EDF090000AE0FFC394105034E057
:10070300150EA80EF2900007E0FEA3E0FFAA06F97B
:100713007BFF150E150E150EA80EEBF208EAF20874
:10072300E9F27A1D79E47F00121424E50E2404F51E
:100733000E80FE90000AE0FF7E007DA5900009E098
:10074300F97A007B00120A6A7F037E001218329046
:10075300000BEEF0A3EFF07F157E0012183290002D
:100763000DEEF0A3EFF090000BE0FEA3E0FF4E6070
:1007730009A3E0FEA3E0FF4E700F7E1E7F169000DC
:1007830007E0FCA3E0FD121A0090000DE0FEA3E0D9
:10079300FF90000BE0FCA3E0FD1212E7900009E0DC
:1007A300FF90000DE0FCA3E0FDF5828C832405F5AA
:1007B30082E5833400F583E0FCA3E0FDF5828C83BE
:1007C300EFF090000AE0FF90000DE0FCA3E0FDF5E0
:1007D300828C832405F582E5833400F583E0FCA352
:1007E300E0FDF5828C83A3EFF0900004E0FBA3E02F
:1007F300FAA3E0F9AE02FF900009E0FEF8A607E0D5
:1008030004F0900004E0FBA3E0FAA3E0F9AE02FFDA
:10081300EEFF7E00900009E0FEF8A607900004E0DA
:10082300FBA3E0FAA3E0F9C003C002C0017BFF7A97
:100833001C79F0D082D083D0E0F47008E96582702F
:1008430003EA6583602290000FE4F090000FE0FF5D
:10085300C3940D5013900009E004F0E0FFF8760014
:1008630090000FE004F080E3900009E0FF90000D9A
:10087300E0FCA3E0FDF5828C832405F582E5833457
:1008830000F583E0FCA3E0FDF5828C83A3A3EFF0E6
:10089300900004E0FBA3E0FAA3E0F990000DE0FE72
:1008A300A3E0FFF5828E83EBF0A3EAF0A3E9F090D7
:1008B3000007E0FEA3E0FF90000DE0FCA3E0FDF5E0
:1008C300828C83A3A3A3EEF0A3EFF090000DE0FED0
:1008D300A3E0FFF5828E832407F582E5833400F5D8
:1008E300837401F09001F2E0FEA3E0FF90000DE0BD
:1008F300FCA3E0FD120ED290000DE0FEA3E0FFAAE0
:1009030006F97B0122BB010689828A83E022500219
:10091300E722BBFE02E32289828A83E49322BC009E
:100923000BBE0029EF8DF084FFADF022E4CCF87507
:10093300F008EF2FFFEE33FEEC33FCEE9DEC984016
:1009430005FCEE9DFE0FD5F0E9E4CEFD22EDF8F5B2
:10095300F0EE8420D21CFEADF075F008EF2FFFED12
:1009630033FD4007985006D5F0F222C398FD0FD50A
:10097300F0EA22BB0110E58229F582E5833AF5838B
:10098300E0F5F0A3E0225009E92582F886F008E6B5
:1009930022BBFE0AE92582F8E2F5F008E222E583AC
:1009A3002AF583E993F5F0A3E99322ECF0A3EDF0A4
:1009B300A3EEF0A3EFF022A8828583F0D083D08248
:1009C3001209D11209D11209D11209D1E473E493A6
:1009D300A3C583C5F0C583C8C582C8F0A3C583C5B5
:1009E300F0C583C8C582C822BB0120E58229F582F0
:1009F300E5833AF583D0F0D0E0F8D0E0F9D0E0FA1F
:100A0300D0E0FBE8C0E0C0F0020AC75018E9258235
:100A1300F8D083D082D0E0F9D0E0FAD0E0FBC082F6
:100A2300C083020ABEBBFE18E92582F8D083D082B8
:100A3300D0E0F9D0E0FAD0E0FBC082C083020AD054
:100A430022D083D082F8E4937012740193700DA3C3
:100A5300A393F8740193F5828883E4737402936813
:100A630060EFA3A3A380DFEF4E6012EF60010EEDF2
:100A7300BB010B89828A83F0A3DFFCDEFA2289F0B3
:100A83005007F709DFFCA9F022BBFEFCF309DFFCEA
:100A9300A9F022EF8DF0A4A8F0CF8CF0A428CE8D7E
:100AA300F0A42EFE22C5F0F8A3E028F0C5F0F8E587
:100AB30082158270021583E038F022EBF608EAF61D
:100AC30008E9F622EBF0A3EAF0A3E9F022EBF2083F
:100AD300EAF208E9F222BB010CE58229F582E583FB
:100AE3003AF583E0225006E92582F8E622BBFE06AA
:100AF300E92582F8E222E58229F582E5833AF58346
:100B0300E49322BB010689828A83F0225002F722F2
:100B1300BBFE01F322FAE6FB0808E6F925F0F61816
:100B2300E6CA3AF6229001F0E0FEA3E0FF4E601B16
:100B33009001F0E0A3E0F5828E83240CF582E58337
:100B43003400F583E0FF6003020D199001F0E0FE2D
:100B5300A3E0FF1219A49001F0E0FEA3E0FF4E70A2
:100B630003020C449001F0E0A3E0F5828E83240796
:100B7300F582E5833400F583E0FF120A440B8D020E
:100B83000BBC030C310500000C449001F0E0FEA304
:100B9300E0FFF5828E832407F582E5833400F58335
:100BA3007401F09001F2E0FEA3E0FF9001F0E0FC9D
:100BB300A3E0FD120ED2020C449001F0E0FEA3E08C
:100BC300FFF5828E83240DF582E5833400F583E0FF
:100BD300FF70469001F0E0A3E0FFF5828E83240EC0
:100BE300F582E5833400F583E0FF702D9001F0E09A
:100BF300A3E0FFF5828E832407F582E5833400F5B5
:100C0300837401F09001F2E0FEA3E0FF9001F0E0B5
:100C1300FCA3E0FD120ED280289001F4E0FEA3E0D5
:100C2300FF9001F0E0FCA3E0FD120ED280139001CF
:100C3300F6E0FEA3E0FF9001F0E0FCA3E0FD120E5E
:100C4300D29001F2E0FEA3E0FF12118EAE02AF01DB
:100C53009001F0EEF0A3EFF09001F0E0FEA3E0FFCF
:100C63004E7003020D199001F0E0A3E0F5828E832C
:100C73002407F582E5833400F583E0FFB4014B904C
:100C830001F0E0A3E0FFF5828E832407F582E5837C
:100C93003400F5837402F09001F0E0FEA3E0FFF569
:100CA300828E83240CF582E5833400F583740AF085
:100CB3009001F0E0FEA3E0FFF5828E83240DF58220
:100CC300E5833400F58374FFF0229001F0E0FEA386
:100CD300E0FFF5828E832407F582E5833400F583F4
:100CE300E0FF64056003020C5B9001F6E0FEA3E005
:100CF300FF9001F0E0FCA3E0FD120ED29001F2E0C0
:100D0300FEA3E0FF12118EAE02AF019001F0EEF0F0
:100D1300A3EFF0020C5B229001F0E0FEA3E0FF4E94
:100D23007003020DD79001F0E0A3E0F5828E8324D7
:100D330008F582E5833400F583E0FCA3E0FDA3E03E
:100D4300FEA3E0FF7B017A00790078002BFFEE3AE7
:100D5300FEED39FDEC38FC9001F0E0FAA3E0FBF581
:100D6300828A832408F582E5833400F5831209AE71
:100D73009001F0E0FEA3E0FFF5828E83240CF58260
:100D8300E5833400F583E0FF60189001F0E0A3E011
:100D9300FFF5828E83240CF582E5833400F583E02E
:100DA30014F09001F0E0FEA3E0FFF5828E83240DA2
:100DB300F582E5833400F583E0FF60189001F0E0ED
:100DC300A3E0FFF5828E83240DF582E5833400F5DD
:100DD30083E014F09001F4E0FEA3E0FFF5828E833C
:100DE3002406F582E5833400F583E0FF900036F0B6
:100DF300900036E0FFD394005003020ED19001F42B
:100E0300E0FEA3E0FF12118EAE02AF01900034EEBC
:100E1300F0A3EFF0900034E0FEA3E0FF4E70030276
:100E23000EC8900034E0A3E0F5828E83240DF58292
:100E3300E5833400F583E0FF6018900034E0A3E01D
:100E4300FFF5828E83240DF582E5833400F583E07C
:100E530014F0900034E0FEA3E0FFF5828E83240DAE
:100E6300F582E5833400F583E0FF7046900034E0BB
:100E7300A3E0FFF5828E83240EF582E5833400F52B
:100E830083E0FF702D900034E0A3E0FFF5828E83B2
:100E93002407F582E5833400F5837401F09001F2B1
:100EA300E0FEA3E0FF900034E0FCA3E0FD120ED2CD
:100EB30080139001F4E0FEA3E0FF900034E0FCA374
:100EC300E0FD120ED2900036E014F0020DF32290F2
:100ED3000028EEF0A3EFF0A3ECF0A3EDF0900028D0
:100EE300E0FEA3E0FF4E700302102FA3E0FEA3E099
:100EF300FF4E700302102F900028E0FEA3E0FFF5E1
:100F0300828E83A3A3A3E0FBA3E0FAA3E0F9C003CB
:100F1300C002C0017B007A007900D082D083D0E088
:100F23007006E5827002E583705D90002AE0FEA3FF
:100F3300E0FFAA06F97B01900028E0FEA3E0FFF59D
:100F4300828E83EBF0A3EAF0A3E9F090002AE0FE9F
:100F5300A3E0FFAA06F9900028E0FEA3E0FFF582D4
:100F63008E83A3A3A3EBF0A3EAF0A3E9F0900028F8
:100F7300E0FEA3E0FFF5828E832406F582E5833449
:100F830000F583E004F02290002AE0FEA3E0FFAA2C
:100F930006F97B01C003C002C001900028E0FEA354
:100FA300E0FFF5828E83A3A3A3E0FBA3E0FAA3E013
:100FB300F97582127583001209EB900028E0FEA3F5
:100FC300E0FFF5828E83A3A3A3E0FBA3E0FAA3E0F3
:100FD300F990002AE0FEA3E0FFF5828E83240FF54B
:100FE30082E5833400F583EBF0A3EAF0A3E9F09004
:100FF300002AE0FEA3E0FFAA06F97B01900028E0A7
:10100300FEA3E0FFF5828E83A3A3A3EBF0A3EAF094
:10101300A3E9F0900028E0FEA3E0FFF5828E83248D
:1010230006F582E5833400F583E004F0229001F0B5
:10103300E4F0A3F07F07FE1218329001F2EEF0A362
:10104300EFF09001F2E0FEA3E0FF4E700B7E1E7FF7
:10105300577C1D7DB1121A007B007A007900900144
:10106300F2E0FEA3E0FFF5828E83EBF0A3F0A3F0A2
:101073009001F2E0FEA3E0FFF5828E83A3A3A3EB2E
:10108300F0A3F0A3F09001F2E0FEA3E0FFF5828E5F
:10109300832406F582E5833400F583E4F07F07FEBD
:1010A3001218329001F4EEF0A3EFF09001F4E0FE99
:1010B300A3E0FF4E700B7E1E7F577C1D7DC1121A6D
:1010C300007B007A0079009001F4E0FEA3E0FFF5D5
:1010D300828E83EBF0A3F0A3F09001F4E0FEA3E093
:1010E300FFF5828E83A3A3A3EBF0A3F0A3F09001FB
:1010F300F4E0FEA3E0FFF5828E832406F582E58308
:101103003400F583E4F07F07FE1218329001F6EE07
:10111300F0A3EFF09001F6E0FEA3E0FF4E700B7E2C
:101123001E7F577C1D7DD3121A007B007A00790045
:101133009001F6E0FEA3E0FFF5828E83EBF0A3F0CF
:10114300A3F09001F6E0FEA3E0FFF5828E83A3A354
:10115300A3EBF0A3F0A3F09001F6E0FEA3E0FFF50C
:10116300828E832406F582E5833400F583E4F07BE5
:10117300FF7A1C79F07C1E7D4B7F7F900009EFF096
:10118300A37414F01206E7121CA62290002CEEF0B2
:10119300A3EFF090002CE0FEA3E0FF4E602E900042
:1011A3002CE0A3E0F5828E83E0FBA3E0FAA3E0F951
:1011B300C003C002C0017B007A007900D082D083D3
:1011C300D0E07006E5827002E58370077B007A0049
:1011D30079002290002CE0FEA3E0FFF5828E83E0ED
:1011E300FBA3E0FAA3E0F9AE02FF90002EEEF0A31A
:1011F300EFF090002EE0FEA3E0FFF5828E83241231
:10120300F582E5833400F583E0FBA3E0FAA3E0F97C
:1012130090002CE0FEA3E0FFF5828E83EBF0A3EABF
:10122300F0A3E9F090002CE0FEA3E0FFF5828E83AB
:101233002406F582E5833400F583E014F090002C56
:10124300E0FEA3E0FFF5828E832406F582E5833476
:1012530000F583E0FF7019FBFAF990002CE0A3E09E
:10126300FFF5828E83A3A3A3EBF0A3F0A3F0802961
:101273007B007A007900C003C002C00190002CE01B
:10128300FEA3E0FFF5828E83E0FBA3E0FAA3E0F97F
:1012930075820F7583001209EB7B007A0079009049
:1012A300002EE0FEA3E0FFF5828E832412F582E593
:1012B300833400F583EBF0A3F0A3F090002EE0FE5F
:1012C300A3E0FFF5828E83240FF582E5833400F5D6
:1012D30083EBF0A3F0A3F090002EE0FEA3E0FFAABF
:1012E30006F90B22900024EEF0A3EFF0A3ECF0A399
:1012F300EDF0900026E0FEA3E0FFF5828E83E4F09C
:10130300900026E0FEA3E0FFF5828E83A3E4F09035
:101313000026E0FEA3E0FFF5828E83A3A3E4F0FBA7
:10132300FAF9900024E0FEA3E0FFF5828E83EBF050
:10133300A3F0A3F0900024E0FEA3E0FFF5828E83E8
:10134300A3A3A3E4F0A3F0900026E0FEA3E0FF90A4
:101353000024E0FCA3E0FDF5828C832405F582E5FF
:10136300833400F583EEF0A3EFF0900024E0FEA3B6
:10137300E0FFF5828E832407F582E5833400F5834D
:101383007401F0900024E0FEA3E0FFF5828E832435
:1013930008F582E5833400F5831209BA00000000E2
:1013A300900024E0FEA3E0FFF5828E83240CF582F7
:1013B300E5833400F583E4F0900024E0FEA3E0FF2E
:1013C300F5828E83240DF582E5833400F583E4F002
:1013D300900024E0FEA3E0FFF5828E83240EF582C5
:1013E300E5833400F583E4F0900024E0FEA3E0FFFE
:1013F300F5828E83240FF582E5833400F583EBF0C9
:10140300A3F0A3F0900024E0FEA3E0FFF5828E8317
:101413002412F582E5833400F583EBF0A3F0A3F007
:1014230022150E150E150EA80EEBF208EAF208E9C6
:10143300F2150EA80EEFF2E50E24F9F50E2012FDBB
:10144300D2127D017C007FA07E00121B79A80EEED4
:10145300F208EFF2A80EE2FE08E2FF4E70127BFFE5
:101463007A1E795FE50E2407F8E2FF1218CE80FE9C
:101473007BFEE50E2408F97A002403F9EA3400FA26
:10148300A80E0808EBF208EAF208E9F2A80EE2FE59
:1014930008E2FFAA06F97B01C003C002C001E50E02
:1014A3002408F8E2FB08E2FA08E2F98B3D8A3EF5EC
:1014B3003FA80E0808E2FB08E2FA08E2F98B408A2B
:1014C30041F542D001D002D003121B4BE50E240597
:1014D300F8EEF208EFF27B007A007900A80E080814
:1014E300EBF208F208F2E50E2405F8E2FE08E2FF4B
:1014F300C3EE648094804014E50E2405F8E2FE08F0
:10150300E2FFC394A0EE6480948040127BFF7A1EB6
:101513007988E50E2407F8E2FF1218CE80FEA80EA4
:10152300E2FE08E2FFAA06F97B01E50E2407F8E2D2
:10153300FF1218CE7D0AE50E2407F8E2FF121C44C1
:10154300A80EE2FE08E2FF121673C212E50E240B88
:10155300F50E22150EA80EEBF2150EA80EEDF215E0
:101563000EA80EEFF2150E9001F0E0FEA3E0FF4E81
:10157300700302166C9001F0E0A3E0F5828E8324E1
:1015830007F582E5833400F5837403F0A80E08E2BF
:10159300FF30E0559001F0E0FEA3E0FFF5828E837B
:1015A300240DF582E5833400F583E0FFC374FF9FC8
:1015B300FFA80EF20808E2FFA80EE2FEC39F400454
:1015C3007F00800BA80EE2FF0808E2FEC39FFF9096
:1015D30001F0E0FCA3E0FDF5828C83240DF582E5A8
:1015E300833400F583EFF08026A80E08E2FF30E194
:1015F3001EA80E0808E2FF9001F0E0FCA3E0FDF551
:10160300828C83240DF582E5833400F583EFF0A803
:101613000E08E2FF30E41FE50E2403F8E2FF900119
:10162300F0E0FCA3E0FDF5828C83240EF582E583D4
:101633003400F583EFF09001F0E0FEA3E0FFF582C4
:101643008E83240CF582E5833400F583E4F0900166
:10165300F0E0FEA3E0FFF5828E832407F582E583A5
:101663003400F583E0FFB402E5E50E2404F50E2211
:10167300EF4E7003021776900012E07002A3E07041
:1016830003021776CDEFCDCCEECCED24FCFDEC348C
:10169300FFFC753D00753E10853E82853D83E0FA73
:1016A300A3E08A3FF540453F6011D3E5409FE53F06
:1016B3009E5008853F3D85403E80DDE540453F60C7
:1016C3004A8D828C83A3A3E0FAA3E02FFFEA3EFEB8
:1016D300EF65407003EE653F7031854082853F833F
:1016E300A3A3E0FEA3E02404FFE43E8D828C83A346
:1016F300A38FF0120AA8854082853F83E0FFA3E011
:101703008D828C83CFF0A3EFF0800B8D828C83E5E9
:101713003FF0A3E540F0853E82853D83A3A3E0FE31
:10172300A3E0253EFFEE353DFEEF2404FFE43EFE3D
:10173300EF6D7002EE6C70308D828C83A3A3E0FE9C
:10174300A3E02404FFE43E853E82853D83A3A38F6B
:10175300F0120AA88D828C83E0FFA3E0853E828588
:101763003D83CFF0A3EFF022853E82853D83ECF0ED
:10177300A3EDF022C0E0C0F0C083C082C0D0C0009F
:10178300C001C002C003C004C005C006C00775D0B5
:10179300009001F0E0FFA3E04F6023AF819001F0E0
:1017A300E0FCA3E0FDED2405FDEC3400FC8D828C10
:1017B30083E0FCA3E0FD8D828C83A3A3EFF0900074
:1017C30040E0F581E50B2401F50BE50A3400F50A49
:1017D300E5093400F509E5083400F508120D1A127D
:1017E3000B289001F0E0FFA3E04F6028900040E554
:1017F30081F09001F0E0FEA3E0FFEF2405FFEE345B
:1018030000FE8F828E83E0FEA3E0FF8F828E83A390
:10181300A3E0F581D007D006D005D004D003D002D1
:10182300D001D000D0D0D082D083D0F0D0E0328E9F
:10183300418F427E007F108F828E83E0FCA3E0FD08
:101843004C7003FEFF228D828C83A3A3E0FAA3E0F6
:10185300FBC39542EA95415008CEECCECFEDCF8045
:10186300D6C3EB9542F544EA9541F543C3E5449469
:1018730010E543940050198D828C83E0FBA3E08F25
:10188300828E83CBF0A3EBF0ED2404FFE43CFE2235
:1018930074FC2544F54474FF3543F5438D828C83F2
:1018A300A3A3F0A3E544F0ED2404FFE43CFEEF25FD
:1018B30044FFEE3543FE8F82F583A3A3E541F0A3F6
:1018C300E542F0EF2404FFE43EFE22150E150E154B
:1018D3000EA80EEBF208EAF208E9F2150EA80EEFD5
:1018E300F2E2FF702CA80E08E2FB08E2FA08E2F924
:1018F300120908FF6047A80E08E2FB0808E2F92472
:1019030001F218E2FA3400F2120908FF121D2580D1
:10191300D4A80E08E2FB08E2FA08E2F9120908FF6C
:10192300601BA80E08E2FB0808E2F92401F218E2A2
:10193300FA3400F2120908FF121D3480D4E50E2494
:1019430004F50E2290001FEBF0A3EAF0A3E9F0A345
:10195300ECF0A3EDF0C2A9C28C90001FE0FBA3E062
:10196300FAA3E0F9150E150E150EA80EEBF208EA10
:10197300F208E9F2A3E0FEA3E0FFAA06F97BFF1554
:101983000E150E150EA80EEBF208EAF208E9F27A2C
:101993001E79247F00121424E50E2406F50E80FE22
:1019A3002290003CEEF0A3EFF090003CE0FEA3E0B9
:1019B300FF4E604890003CE0A3E0F5828E8324054F
:1019C300F582E5833400F583E0FEA3E0FF121A58A5
:1019D300EF602990003CE0FEA3E0FFF5828E83E0F8
:1019E300FBA3E0FAA3E0F990003CE0A3E0F5828ECC
:1019F30083A3A3A3E0FCA3E0FD12194722900030C8
:101A0300EEF0A3EFF0A3ECF0A3EDF0900032E0FED4
:101A1300A3E0FFAA06F97BFF150E150E150EA80EFF
:101A2300EBF208EAF208E9F2900030E0FEA3E0FFEF
:101A3300AA06F9150E150E150EA80EEBF208EAF21A
:101A430008E9F27A1D79847F00121424E50E240636
:101A5300F50E80FE2290003AEEF0A3EFF090003AEC
:101A6300E0FEA3E0FF4E7002FF2290003AE0FEA3E7
:101A7300E0FFF5828E83A3E0FF90003AE0FCA3E051
:101A8300FDF5828C83E0FE2FFF14FF7813F6E6FF4B
:101A9300F8E6FF64A560037F01227F0022120B2872
:101AA3009001F0E0FEA3E0FF4E602B900040E58143
:101AB300F09001F0E0FEA3E0FFF5828E832405F5AC
:101AC30082E5833400F583E0FEA3E0FFF5828E8395
:101AD300A3A3E0FFF581D2A9D28C22EF4E7008FEBA
:101AE3007F01ED1D70011C900010EEF0A3EFF0A339
:101AF300ECF0A3EDF0900010E0FEA3E0FFF5828E82
:101B030083E4F0A3F0ED24FCFDEC34FF8F828E839D
:101B1300A3A3F0A3EDF0227BFF7A1D79527C1E7DF7
:101B2300B67F57900009EFF0A37414F01206E77B19
:101B3300FF7A1C79D97C1E7DBC7F6B900009EFF086
:101B4300A37414F01206E722853D46853E47853F80
:101B530048EBC540FBEAC541FAE9C542F97F09787C
:101B630049120908F60809E970010ADFF4AB40AA33
:101B730041A9420200A28E3D8F3E120A968E3D8FEE
:101B83003E1218328E3F8F40EF4E7003FEFF22AE9F
:101B93003DAF3E7D00AA3FA9407B01120A6AAE3FDA
:101BA300AF4022C0E0C0D075D018E59A30E01053A2
:101BB3009AFE7801E59BF2E59A5404FF7803F2E577
:101BC3009A30E105539AFDC213D0D0D0E032150EFE
:101BD300150EA80EEEF208EFF2A80E08E2FF24FF9E
:101BE300F218E2FE34FFF2EF4E600512000E80E9B8
:101BF300050E050E22EFB40A07740D121C03740AB6
:101C0300309811A899B8130CC2983098FDA899C2BE
:101C130098B811F63099FDC299F59922C0E0C0D069
:101C230075D01830980FC2987800E599F2A29AE41B
:101C330033FF7802F2309904C299C213D0D0D0E0B6
:101C430032150EA80EEDF2150EA80EEFF2E2FF709C
:101C53000808E2FF121D258008A80E08E2FF121DE6
:101C630034050E050E22150E150EA80EEEF208EF22
:101C7300F2A80E08E2FF24FFF218E2FE34FFF2EFAF
:101C83004E70EE050E050E227E027F007D007B0165
:101C93007A027900120A6A7E027F007D007C0212BA
:101CA3001ADE22750B00750A0075090075080043DA
:101CB3008E805389F0758A20758CD1D2AF22121D84
:101CC300167BFF7A1E799F7F001218CE12103012F6
:101CD3001B1A121AA022D2917E007F02121BD1C2BC
:101CE300917B007D057F0112155680EA229001F653
:101CF300E0FEA3E0FF1203A27B007D007F0212152A
:101D03005680EA22787FE4F6D8FD750E007581923D
:101D1300021CC1438E80D2AF121D43121C8B1200D2
:101D23002622150EA80EEFF2D213E2FFF599050E47
:101D330022150EA80EEFF2D213E2FFF59B050E2239
:101D43007E007F00121C697E007F00121BD122B22D
:101D5300907B007D027F0212155680F3225461733B
:101D63006B2064656C6574652E207461736B5F70A2
:101D73003D2570207461736B5F6E616D653D2573E6
:101D8300004E6F7420656E6F756768206D656D6FAB
:101D930072792073706163652E2066756E635F6E62
:101DA300616D653D2573207661723D257000726516
:101DB3006164795F7461736B5F6C69737400626CE7
:101DC3006F636B65645F7461736B5F6C69737400DD
:101DD30068696464656E5F7461736B5F6C69737467
:101DE300005461736B20737461636B206D696E695A
:101DF3006D756D2031362E207461736B5F6E616D6E
:101E0300653D257320737461636B5F6C656E3D255F
:101E13006275004F535F4372656174655461736B00
:101E230000537461636B206F766572666C6F772EF7
:101E3300207461736B5F6E616D653D257320746102
:101E4300736B5F703D2570004F535F49646C65543D
:101E530061736B004F535F496E6974004E6F74205A
:101E6300656E6F756768206D656D6F72792073702D
:101E730061636520666F72205354524255465F4C2E
:101E8300454E2E0A005354524255465F4C454E2050
:101E9300746F6F20736D616C6C2E0A005354524241
:101EA30055465F4C454E20746F6F20736D616C6CAB
:0F1EB3002E0A007461736B31007461736B32001F
:00000001FF
