:03000000021C5B84
:10000B00021028150FA80FEFF2A80FE2FFEFD21284
:05001B00F599050F221C
:10002300021BEE150FA80FEFF2A80FE2FFEFD2129B
:05003300F59B050F2202
:10004300021B9BBB010689828A83E0225002E722BE
:10005300BBFE02E32289828A83E49322BB010CE57F
:100063008229F582E5833AF583E0225006E9258269
:10007300F8E622BBFE06E92582F8E222E58229F5AD
:1000830082E5833AF583E49322BB010689828A835E
:10009300F0225002F722BBFE01F322F8BB010DE56B
:1000A3008229F582E5833AF583E8F0225006E925B3
:1000B30082C8F622BBFE05E92582C8F222BC000BEA
:1000C300BE0029EF8DF084FFADF022E4CCF875F08B
:1000D30008EF2FFFEE33FEEC33FCEE9DEC9840056A
:1000E300FCEE9DFE0FD5F0E9E4CEFD22EDF8F5F030
:1000F300EE8420D21CFEADF075F008EF2FFFED3338
:10010300FD4007985006D5F0F222C398FD0FD5F0B5
:10011300EA22A3F8E0C5F025F0F0E582158270022B
:100123001583E0C838F0E822BB0110E58229F58287
:10013300E5833AF583E0F5F0A3E0225009E925824F
:10014300F886F008E622BBFE0AE92582F8E2F5F01C
:1001530008E222E5832AF583E993F5F0A3E99322E4
:10016300F8BB0111E58229F582E5833AF583E8F0CE
:10017300E5F0A3F0225009E92582C8F608A6F0228B
:10018300BBFE09E92582C8F2E5F008F222EB9FF5F0
:10019300F0EA9E42F0E99D42F0E89C45F022ECF043
:1001A300A3EDF0A3EEF0A3EFF022ECF208EDF208DA
:1001B300EEF208EFF222BB010DE58229F582E58319
:1001C3003AF5830203115007E92582F80202F8BBCE
:1001D300FE07E92582F802034222BB011A89828ABB
:1001E30083D0F0D0E0F8D0E0F9D0E0FAD0E0FBE83B
:1001F300C0E0C0F00203645016E9F8D083D082D087
:10020300E0F9D0E0FAD0E0FBC082C08302035BBB1D
:10021300FE16E9F8D083D082D0E0F9D0E0FAD0E03E
:10022300FBC082C08302036D22BB0120E58229F556
:1002330082E5833AF583D0F0D0E0F8D0E0F9D0E05E
:10024300FAD0E0FBE8C0E0C0F00203645018E925EF
:1002530082F8D083D082D0E0F9D0E0FAD0E0FBC0BE
:1002630082C08302035BBBFE18E92582F8D083D0EA
:1002730082D0E0F9D0E0FAD0E0FBC082C083020371
:100283006D22E50E2582F582E50D3583F583B50DE7
:100293000485820E2210AF0685820EF50D2285821B
:1002A3000EF50DD2AF22E50E2582F582E50D3583DD
:1002B300F58322EF4E6012EF60010EEDBB010B8957
:1002C300828A83F0A3DFFCDEFA2289F05007F70964
:1002D300DFFCA9F022BBFEFCF309DFFCA9F022C579
:1002E300F0F8A3E028F0C5F0F8E582158270021556
:1002F30083E038F022D083D082E493F6087401932C
:10030300F608740293F608740393F6740473A882D0
:100313008583F0D083D08212032812032812032886
:10032300120328E473E493A3C583C5F0C583C8C54A
:1003330082C8F0A3C583C5F0C583C8C582C822D0CF
:1003430083D082E493F208740193F208740293F267
:1003530008740393F2740473EBF608EAF608E9F6FB
:1003630022EBF0A3EAF0A3E9F022EBF208EAF208A9
:10037300E9F222FAE6FB0808E6F925F0F618E6CAE0
:100383003AF622D083D082F8E4937012740193700A
:100393000DA3A393F8740193F5828883E473740225
:1003A300936860EFA3A3A380DFE5522446F8E60534
:1003B300522278433010027846E475F00112037636
:1003C3000200462009EB7F2ED2098018EF540F2438
:1003D30090D43440D4FF300D0BEF24BFB41A005037
:1003E300032461FFE553600215530556E556700279
:1003F300055530100D7843E475F001120376EF02D2
:10040300008C021BC77403D2108003E4C210F552A0
:100413008B438A448945E4F553F555F556E5536016
:10042300077F201203E780F57554FFC20AC209C291
:100433000BC20CC20EC20FC2111203B5FF700D30F6
:1004430010057F001203F8AF56AE5522B4255FC2E4
:10045300D5C20D1203B5FF24D0B40A00501A75F0AB
:100463000A785330D50508B6FF0106C6A426F62040
:10047300D5047002D20C80D924CFB41A00EF5004F3
:10048300C2E5D20D0205F8D20A80C6D20980C0D2D5
:100493000B80BCD2D580BAD20E80B47F201203E782
:1004A300200B077401B5530040F11203ACFF120394
:1004B300E7020420D211D20F80951203ACFB120382
:1004C300ACFA1203ACF94A4B700679C97A067BFF82
:1004D300200B2EE553602A7E008E82758300120066
:1004E3005F60060EEE655470F0C2D5EBC0E0EAC063
:1004F300E0E9C0E0EE12063FD0E0F9D0E0FAD0E048
:10050300FB120046FF60AAEBC0E0EAC0E0E9C0E0EE
:100513001203E7D0E02401F9D0E03400FAD0E0FB85
:10052300E5540460DCD554D980877BFF7A06793B98
:10053300D20B809C791080027908C20FC211800807
:10054300D2D5790A8004790AC2D5E554047002F53C
:1005530054E4FAFDFEFF1203ACFC7B08200A1312DD
:1005630003ACFD7B1030090A1203ACFE1203ACFF8F
:100573007B20EC3382D592D55013C3E43009069F18
:10058300FFE49EFEE4200A039DFDE49CFCE4CBF81B
:10059300C20AEC700CCFCECDCCE824F8F870F3800F
:1005A30017C3EF33FFEE33FEED33FDEC33FCEB33D8
:1005B300FB994002FB0FD8E9EB300A05F8D0E0C401
:1005C30048B20AC0E00AEC4D4E4F78207B0070C25F
:1005D300EAB5540040BCC0E0120641D0F0D0E020A0
:1005E3000A04C4C0E0C4B20AC0F01203D0D0F0D5EC
:1005F300F0EB02042012038604BD53053758048E22
:100603004C048A42053B4F05434405434904A34335
:10061300054955052D46052D45052D4706E9500489
:10062300922D04962E04B92B049A2304B72006D2E4
:100633002A045248000004B13F3F3F00790AA2D583
:10064300200C14300E09B910020404B9080104A2E5
:10065300D5200F02500104200B68920BB5530050B4
:1006630034C0E07F20300C197F30A20B720F720E62
:10067300500F120698C20BC20FC20EC2117F3080F8
:100683000F300E03E9C0E01203E7300E03D0E0F9A8
:10069300D0E0B553CC300E177F30B9100C1203E7FE
:1006A3007F58300D077F788003B908031203E730C2
:1006B3000B057F2D0203E77F202011F87F2B200FEE
:1006C300F322920B80CF286E756C6C2900D20A122C
:1006D30003AC300AF8C20A785330D50108F6020495
:1006E300522D504349581203AC2403B40500400172
:1006F300E49006E4931203D8743A1203D8D20C752B
:1007030053040205379001F3E0FEA3E0FF8F828ECE
:1007130083E0FBA3E0FAA3E0F9AE02AF019000BDD2
:10072300EEF0A3EFF09000BDE0FEA3E0FFEF4E700C
:1007330003020A559000BDE0FEA3E0FF8F828E8383
:10074300E5822405F582E5833400F583E0FF7E002E
:10075300EF64054E6003020A269000BDE0FEA3E0AD
:10076300FFAA06A9077B019000BFEBF0A3EAF0A361
:10077300E9F09001F3E0FEA3E0FF8F828E83E0FBBC
:10078300A3E0FAA3E0F9C003C002C0019000BDE0FA
:10079300FEA3E0FFAA06A9077B01D082D083D0E0A5
:1007A3006B7008E965827003EA658360030208459C
:1007B3009000BDE0FEA3E0FF8F828E83E582240FCD
:1007C300F582E5833400F583E0FBA3E0FAA3E0F9C7
:1007D3009001F3E0FEA3E0FF8F828E83EBF0A3EAA8
:1007E300F0A3E9F09001F3E0FEA3E0FF8F828E8394
:1007F300E5822406F582E5833400F583E014F09066
:1008030001F3E0FEA3E0FF8F828E83E5822406F5E9
:1008130082E5833400F583E0FF7E00EF4E60030240
:1008230009767B007A0079009001F3E0FEA3E0FFF4
:100833008F828E83A3A3A3EBF0A3EAF0A3E9F002D4
:1008430009769001F3E0FEA3E0FF8F828E83A3A3DA
:10085300A3E0FBA3E0FAA3E0F9C003C002C0019048
:1008630000BDE0FEA3E0FFAA06A9077B01D082D06A
:1008730083D0E06B7008E965827003EA6583705585
:100883009000BDE0FEA3E0FF8F828E83E582240CFF
:10089300F582E5833400F583E0FBA3E0FAA3E0F9F6
:1008A3009001F3E0FEA3E0FF8F828E83A3A3A3EB6B
:1008B300F0A3EAF0A3E9F09001F3E0FEA3E0FF8FD9
:1008C300828E83E5822406F582E5833400F583E096
:1008D30014F00209769000BDE0FEA3E0FF8F828E44
:1008E30083E582240FF582E5833400F583E0FBA3DF
:1008F300E0FAA3E0F9C003C002C0019000BDE0FE2E
:10090300A3E0FF8F828E83E582240CF582E5833496
:1009130000F583E0FBA3E0FAA3E0F975820F75838A
:100923000012022C9000BDE0FEA3E0FF8F828E83B5
:10093300E582240CF582E5833400F583E0FBA3E034
:10094300FAA3E0F9C003C002C0019000BDE0FEA31A
:10095300E0FF8F828E83E582240FF582E5833400E6
:10096300F583E0FBA3E0FAA3E0F975820C7583003D
:1009730012022C9000BDE0FEA3E0FF8F828E83E580
:1009830082240FF582E5833400F583E0FBA3E0FACC
:10099300A3E0F9AE02AF019000BDEEF0A3EFF0903B
:1009A30000BFE0FBA3E0FAA3E0F9758203758300BF
:1009B30012012BFFAEF0AA06A9077BFF90FFFD12E1
:1009C3000285EBF0A3EAF0A3E9F09000BFE0FBA3FC
:1009D300E0FAA3E0F990FFFD120285EBF0A3EAF041
:1009E300A3E9F07BFF7A1C797F7F0012166F9000DA
:1009F300061202859000BFE0FBA3E0FAA3E0F975BD
:100A0300820A75830012012BFFAEF01214B290001C
:100A1300BFE0FBA3E0FAA3E0F9AE02AF011214B208
:100A23000207289000BDE0FEA3E0FF8F828E83E5DE
:100A330082240FF582E5833400F583E0FBA3E0FA1B
:100A4300A3E0F9AE02AF019000BDEEF0A3EFF00218
:100A53000728229000A4EBF0A3EAF0A3E9F09000AA
:100A6300A7ECF0A3EDF09000AAE0FF7E00C3EF94A3
:100A730010EE64809480503C9000AAE0FF90FFFF4A
:100A8300120285EFF09000A7E0FEA3E0FFAA06A9FB
:100A9300077BFF90FFFD120285EBF0A3EAF0A3E9C9
:100AA300F07BFF7A1C79A37F0012166F900004126B
:100AB300028580FE9000AAE0FF7E007DA59000A93C
:100AC300E0F97A007B001202B67F037E001217233F
:100AD3009000ABEEF0A3EFF07F127E00121723908D
:100AE30000ADEEF0A3EFF09000ABE0FEA3E0FFEF6C
:100AF3004E600C9000ADE0FEA3E0FFEF4E70169049
:100B030000A4E0FBA3E0FAA3E0F99000A7E0FCA3B4
:100B1300E0FD1219D39000ADE0FEA3E0FFAA06A901
:100B2300077B01C003C002C0019000ABE0FEA3E05D
:100B3300FFAA06A9077B019000BAEBF0A3EAF0A392
:100B4300E9F0D001D002D0031213A89000A9E0FF6E
:100B53009000ADE0FCA3E0FD8D828C83E582240A46
:100B6300F582E5833400F583E0FCA3E0FD8D828C00
:100B730083EFF09000AAE0FF9000ADE0FCA3E0FD5E
:100B83008D828C83E582240AF582E5833400F58324
:100B9300E0FCA3E0FD8D828C83A3EFF09000A4E042
:100BA300FBA3E0FAA3E0F9AE02AF019000A9E0FED7
:100BB300A806A6079000A9E004F09000A4E0FBA318
:100BC300E0FAA3E0F9AE02AF01EEFF7E009000A9C8
:100BD300E0FEA806A6079000A4E0FBA3E0FAA3E0CA
:100BE300F9C003C002C0017BFF7A1C794ED082D0CA
:100BF30083D0E06B7008E965827003EA6583700354
:100C0300020CC99000A9E004F09000A9E0FFA80736
:100C130076009000A9E004F09000A9E0FFA8077611
:100C2300009000A9E004F09000A9E0FFA807760077
:100C33009000A9E004F09000A9E0FFA807760090D7
:100C430000A9E004F09000A9E0FFA8077600900057
:100C5300A9E004F09000A9E0FFA80776009000A99E
:100C6300E004F09000A9E0FFA80776009000A9E057
:100C730004F09000A9E0FFA80776009000A9E00423
:100C8300F09000A9E0FFA80776009000A9E004F027
:100C93009000A9E0FFA80776009000A9E004F09077
:100CA30000A9E0FFA80776009000A9E004F09000F7
:100CB300A9E0FFA80776009000A9E004F09000A93E
:100CC300E0FFA80776009000A9E0FF9000ADE0FCEC
:100CD300A3E0FD8D828C83E582240AF582E58334CB
:100CE30000F583E0FCA3E0FD8D828C83A3A3EFF0EA
:100CF3009000A4E0FBA3E0FAA3E0F99000ADE0FECE
:100D0300A3E0FF8F828E83EBF0A3EAF0A3E9F090D8
:100D130000A7E0FEA3E0FF9000ADE0FCA3E0FD8DA3
:100D2300828C83A3A3A3EEF0A3EFF09000ADE0FECB
:100D3300A3E0FF8F828E83E5822405F582E5833469
:100D430000F5837401F09000ADE0FEA3E0FFAA0676
:100D5300A9077B01120D699000ADE0FEA3E0FFAA95
:100D630006A9077B01229000C7EBF0A3EAF0A3E9F1
:100D7300F07B007A007900C003C002C0019000C775
:100D8300E0FBA3E0FAA3E0F9D082D083D0E06B705C
:100D930008E965827003EA65837003020ED390014C
:100DA300F3E0FEA3E0FF8F828E83A3A3A3E0FBA364
:100DB300E0FAA3E0F9C003C002C0017B007A007926
:100DC30000D082D083D0E06B7008E965827003EABB
:100DD3006583705D9000C7E0FBA3E0FAA3E0F990A0
:100DE30001F3E0FEA3E0FF8F828E83EBF0A3EAF032
:100DF300A3E9F09000C7E0FBA3E0FAA3E0F99001B8
:100E0300F3E0FEA3E0FF8F828E83A3A3A3EBF0A303
:100E1300EAF0A3E9F09001F3E0FEA3E0FF8F828EF6
:100E230083E5822406F582E5833400F583E004F04C
:100E3300229000C7E0FBA3E0FAA3E0F9C003C002DD
:100E4300C0019001F3E0FEA3E0FF8F828E83A3A392
:100E5300A3E0FBA3E0FAA3E0F975820F7583001208
:100E6300022C9001F3E0FEA3E0FF8F828E83A3A305
:100E7300A3E0FBA3E0FAA3E0F9C003C002C0019022
:100E830000C7E0FBA3E0FAA3E0F975820C758300C9
:100E930012022C9000C7E0FBA3E0FAA3E0F9900153
:100EA300F3E0FEA3E0FF8F828E83A3A3A3EBF0A363
:100EB300EAF0A3E9F09001F3E0FEA3E0FF8F828E56
:100EC30083E5822406F582E5833400F583E004F0AC
:100ED30022150F150FA80FEEF208EFF2E50F24FA13
:100EE300F50FE50F2406F8E2FE08E2FFC3EF94E8EE
:100EF300EE9403402EE50F2406F8E2FE08E2FF7CA1
:100F0300037DE81200C0121A2FE50F2406F8C00073
:100F1300E2FE08E2FF7C037DE81200C0D000ECF2A1
:100F230008EDF2AF0BAE0AAD09AC08A80F1201AD84
:100F3300121AFFE50F2404F8EEF208EFF2E50F248E
:100F430004F8E2FE08E2FFC374E79FFF74039EFE0A
:100F5300E50F2406F8E2FC08E2FDC3EF9DEE9C409A
:100F630019E50F2406F8E2FE08E2FFE50F2404F872
:100F730008E22FF218E23EF2805AE50F2404F8E269
:100F8300FE08E2FFC3E49FFFE49EFEE50F2406F89C
:100F9300E2FC08E2FDC3ED9FFFEC9EFEEF2418FF89
:100FA300EE34FCFEE50F2404F8EEF208EFF2A80F8E
:100FB300E2FC08E2FD08E2FE08E2FF7B017A007929
:100FC300007800EF2BFFEE3AFEED39FDEC38FCA87C
:100FD3000F1201ADA80FE2FC08E2FD08E2FE08E2F1
:100FE300FFAB0BAA0AA909A808C312019040E5A800
:100FF3000FE2FC08E2FD08E2FE08E2FFAB0BAA0ADF
:10100300A909A808C31201907014121AFFE50F244E
:1010130004F8E2FC08E2FDC3EF9DEE9C40B6E50F49
:101023002408F50F22C0E0C0F0C083C082C0D07591
:10103300D000C000C001C002C003C004C005C00688
:10104300C0079001F0E0FEA3E0FFEF4E6027AF8101
:101053009001F0E0FCA3E0FD8D828C83E582240AFD
:10106300F582E5833400F583E0FCA3E0FD8D828CFB
:1010730083A3A3EFF09000D3E0FF8F81AF0BAE0A01
:10108300AD09AC087B017A0079007800EF2BF50BF2
:10109300EE3AF50AED39F509EC38F5083013101579
:1010A3000CAF0C7E00EF4E7006750C0A121961909E
:1010B30001F0E0FEA3E0FFEF4E607F9001F0E0FE61
:1010C300A3E0FF8F828E83E5822406F582E58334D5
:1010D30000F583E0FCA3E0FDA3E0FEA3E0FF7B01BA
:1010E3007A0079007800EF2BFFEE3AFEED39FDEC44
:1010F30038FC9001F0E0FAA3E0FB8B828A83E5825F
:101103002406F582E5833400F5831201A19000D310
:10111300E581F09001F0E0FEA3E0FF8F828E83E58E
:1011230082240AF582E5833400F583E0FEA3E0FF21
:101133008F828E83A3A3E0FF8F81D007D006D005D3
:10114300D004D003D002D001D000D0D0D082D0833D
:10115300D0F0D0E0329001F3E0FEA3E0FF8F828E67
:1011630083E0FBA3E0FAA3E0F9C003C002C0017B64
:10117300007A007900D082D083D0E06B7008E965F3
:10118300827003EA658370077B007A0079002290FE
:1011930001F3E0FEA3E0FF8F828E83E0FBA3E0FA7E
:1011A300A3E0F9AE02AF019000CDEEF0A3EFF09013
:1011B30000CDE0FEA3E0FF8F828E83E582240FF54E
:1011C30082E5833400F583E0FBA3E0FAA3E0F99022
:1011D30001F3E0FEA3E0FF8F828E83EBF0A3EAF03E
:1011E300A3E9F07B007A007900C003C002C001903C
:1011F30001F3E0FEA3E0FF8F828E83E0FBA3E0FA1E
:10120300A3E0F975820C75830012022C9001F3E0C0
:10121300FEA3E0FF8F828E83E5822406F582E583B9
:101223003400F583E014F07B007A0079009000CD60
:10123300E0FEA3E0FF8F828E83E582240FF582E533
:10124300833400F583EBF0A3EAF0A3E9F07B007AA3
:101253000079009000CDE0FEA3E0FF8F828E83E54E
:1012630082240CF582E5833400F583EBF0A3EAF0E6
:10127300A3E9F09000CDE0FEA3E0FFAA06A9077B57
:1012830001229001F3E0FEA3E0FF8F828E83E0FB57
:10129300A3E0FAA3E0F9AE02AF019000CFEEF0A312
:1012A300EFF09000CFE0FEA3E0FFEF4E70030213D8
:1012B300379000CFE0FEA3E0FF8F828E83E5822488
:1012C3000AF582E5833400F583E0FEA3E0FFAA0676
:1012D300A9077B011218E5EF602B9000CFE0FEA376
:1012E300E0FF8F828E83E0FBA3E0FAA3E0F9900096
:1012F300CFE0FEA3E0FF8F828E83A3A3A3E0FCA332
:10130300E0FD1219D39000CFE0FEA3E0FF8F828EA1
:1013130083E582240FF582E5833400F583E0FBA3A4
:10132300E0FAA3E0F9AE02AF019000CFEEF0A3EF35
:10133300F00212A59001F0E0FEA3E0FF9000CFEED3
:10134300F0A3EFF09000CFE0FEA3E0FFEF4E605478
:101353009000CFE0FEA3E0FF8F828E83E582240A14
:10136300F582E5833400F583E0FEA3E0FFAA06A936
:10137300077B011218E5EF602B9000CFE0FEA3E09E
:10138300FF8F828E83E0FBA3E0FAA3E0F99000CF06
:10139300E0FEA3E0FF8F828E83A3A3A3E0FCA3E080
:1013A300FD1219D3229000B7EBF0A3EAF0A3E9F002
:1013B3009000BAE0FBA3E0FAA3E0F9E412008C90FA
:1013C30000BAE0FBA3E0FAA3E0F97582017583009C
:1013D300E412009E9000BAE0FBA3E0FAA3E0F975E3
:1013E3008202758300E412009E7B007A007900C0BC
:1013F30003C002C0019000B7E0FBA3E0FAA3E0F949
:101403001201DD9000B7E0FBA3E0FAA3E0F97582D7
:1014130003758300E475F0001201639000B7E0FBED
:10142300A3E0FAA3E0F9758205758300E412009E38
:101433009000B7E0FBA3E0FAA3E0F9758206758399
:10144300001201B9000000009000BAE0FBA3E0FA2B
:10145300A3E0F9AE02AF019000B7E0FBA3E0FAA36B
:10146300E0F975820A758300EE8FF01201637B0049
:101473007A007900C003C002C0019000B7E0FBA36B
:10148300E0FAA3E0F975820C75830012022C7B004D
:101493007A007900C003C002C0019000B7E0FBA34B
:1014A300E0FAA3E0F975820F75830012022C22EF94
:1014B3004E70030215B59000B1E07002A3E0700313
:1014C3000215B5CDEFCDCCEECCED24FCFDEC34FF15
:1014D300FC7523007524AF852482852383E0FAA35A
:1014E300E08A25F52645256011D3E5269FE5259E4F
:1014F300500885252385262480DDE5264525604A79
:101503008D828C83A3A3E0FAA3E02FFFEA3EFEEFD4
:1015130065267003EE65257031852682852583A3B4
:10152300A3E0FEA3E02404FFE43E8D828C83A3A307
:101533008FF01202E2852682852583E0FFA3E08DEA
:10154300828C83CFF0A3EFF0800B8D828C83E52513
:10155300F0A3E526F0852482852383A3A3E0FEA3DD
:10156300E02524FFEE3523FEEF2404FFE43EFEEFE7
:101573006D7002EE6C70308D828C83A3A3E0FEA3AA
:10158300E02404FFE43E852482852383A3A38FF014
:101593001202E28D828C83E0FFA3E08524828523FF
:1015A30083CFF0A3EFF022852482852383ECF0A37D
:1015B300EDF0227E007F667D007B017A02790012C6
:1015C30002B67E027F007D667C00121AC37F077E0F
:1015D300001217239001F3EEF0A3EFF09001F3E074
:1015E300FEA3E0FFEF4E700D7B007A0079007C1DB7
:1015F3007D0C1219D37B007A0079009001F3E0FE91
:10160300A3E0FF8F828E83EBF0A3EAF0A3E9F07BE4
:10161300007A0079009001F3E0FEA3E0FF8F828E51
:1016230083A3A3A3EBF0A3EAF0A3E9F09001F3E013
:10163300FEA3E0FF8F828E83E5822406F582E58395
:101643003400F583E4F09001F0E4F0A3E4F07BFFD1
:101653007A1C794E7C1D7D007F7F9000A9EFF0906E
:1016630000AA7414F0120A56121C142290FFFD12E1
:101673000285EBF0A3EAF0A3E9F090FFFF120285E5
:10168300EFF090FFFD1202857B019000041202A986
:10169300A982AA83E92403F9EA3400FA850D838534
:1016A3000E82EBF0A3EAF0A3E9F07B017A00790460
:1016B300C003C002C0019000041202A9E0FBA3E032
:1016C300FAA3E0F98B3D8A3E893F850D83850E821F
:1016D300E0FBA3E0FAA3E0F98B408A418942D00101
:1016E300D002D003121B6D7B007A007900850D8335
:1016F300850E82EBF0A3EAF0A3E9F07B017A00798F
:10170300049000031202A9E0FF1218547D0A90000E
:10171300031202A9E0FF121A849000071202852225
:101723008E238F247E007FAF8F828E83E0FCA3E025
:10173300FD4C7003FEFF228D828C83A3A3E0FAA3EA
:10174300E0FBC39524EA95235008CEECCECFEDCF32
:1017530080D6C3EB9524F526EA9523F525C3E52624
:101763009410E525940050198D828C83E0FBA3E04F
:101773008F828E83CBF0A3EBF0ED2404FFE43CFED9
:101783002274FC2526F52674FF3525F5258D828CDC
:1017930083A3A3F0A3E526F0ED2404FFE43CFEEFCE
:1017A3002526FFEE3525FE8F82F583A3A3E523F0DF
:1017B300A3E524F0EF2404FFE43EFE221219619016
:1017C30001F0E0FEA3E0FFEF4E607F9001F0E0FE4A
:1017D300A3E0FF8F828E83E5822406F582E58334BE
:1017E30000F583E0FCA3E0FDA3E0FEA3E0FF7B01A3
:1017F3007A0079007800EF2BFFEE3AFEED39FDEC2D
:1018030038FC9001F0E0FAA3E0FB8B828A83E58247
:101813002406F582E5833400F5831201A19000D3F9
:10182300E581F09001F0E0FEA3E0FF8F828E83E577
:1018330082240AF582E5833400F583E0FEA3E0FF0A
:101843008F828E83A3A3E0FF8F81D213D2A9D28C80
:101853002290FFFD120285EBF0A3EAF0A3E9F090DA
:10186300FFFF120285EFF0850D83850E82E0FF7E78
:1018730000EF4E7033850D83850E82A3E0FBA3E05A
:10188300FAA3E0F9120046FFEF6050850D83850E41
:1018930082A3E0FBA3E475F001120115A9F0FA128B
:1018A3000046FF12000E80CD850D83850E82A3E0D6
:1018B300FBA3E0FAA3E0F9120046FFEF601D850DDC
:1018C30083850E82A3E0FBA3E475F001120115A941
:1018D300F0FA120046FF12002680CD900004120297
:1018E30085229000CAEBF0A3EAF0A3E9F07B007A2B
:1018F300007900C003C002C0019000CAE0FBA3E06E
:10190300FAA3E0F9D082D083D0E06B7008E9658256
:101913007003EA658370037F00229000CAE0FBA393
:10192300E0FAA3E0F975820175830012005FFF906E
:1019330000CAE0FBA3E0FAA3E0F9120046FEEE2F93
:10194300FFEF14FF7814A6077814E6FFA807E6FF55
:101953007E00EF64A54E60037F01227F0022900189
:10196300F0E0FEA3E0FFEF4E602C9001F0E0FEA359
:10197300E0FF8F828E83E5822405F582E5833400C0
:10198300F5837401F09001F0E0FEA3E0FFAA06A93D
:10199300077B01120D69121158AE02AF019001F0DD
:1019A300EEF0A3EFF09001F0E0FEA3E0FFEF4E6056
:1019B3001B9001F0E0FEA3E0FF8F828E83E582247B
:1019C30005F582E5833400F5837402F01212852253
:1019D3009000C2EBF0A3EAF0A3E9F09000C5ECF0AD
:1019E300A3EDF09000C2E0FBA3E0FAA3E0F990FFBF
:1019F300FD120285EBF0A3EAF0A3E9F09000C5E045
:101A0300FEA3E0FFAA06A9077BFF90FFFD12028554
:101A1300EBF0A3EAF0A3E9F07BFF7A1C79D57F0012
:101A230012166F90000612028580FE22150F150F05
:101A3300A80FEEF208EFF2E50F24FCF50FE50F24F3
:101A430004F8E2FE08E2FFE4FCFDEF250BFFEE35B0
:101A53000AFEED3509FDEC3508FCA80F1201ADA80F
:101A63000FE2FC08E2FD08E2FE08E2FFAB0BAA0A64
:101A7300A909A808C312019040E5E50F2406F50F54
:101A83002290FFFF120285EDF090FFFF120285EF17
:101A9300F0850D83850E82E0FF7E00EF4E700E858C
:101AA3000D83850E82A3E0FF12000E800C850D834B
:101AB300850E82A3E0FF1200269000021202852207
:101AC300EF4E7008FE7F01ED1D70011C9000AFEE1C
:101AD300F0A3EFF0A3ECF0A3EDF09000AFE0FEA3D2
:101AE300E0FFF5828E83E4F0A3F0ED24FCFDEC34FB
:101AF300FF8F828E83A3A3F0A3EDF022781076D11B
:101B03000876207812760008760CAF8C7E00EF7F83
:101B130000FEAD8A7C00EE4CFEEF4DFF7810E6FC34
:101B230008E6FDC3EF9DFFEE9CFE7812E6FC08E697
:101B3300FD1200C0227BFF7A1C79677C1D7D147F18
:101B4300579000A9EFF09000AA7414F0120A567B84
:101B5300FF7A1C79737C1D7D1A7F6B9000A9EFF0CF
:101B63009000AA7414F0120A5622853D46853E471A
:101B7300853F48EBC540FBEAC541FAE9C542F97F19
:101B8300097849120046F60809E970010ADFF4AB47
:101B930040AA41A942020408C0E0C0D075D018E5AC
:101BA3009A30E011539AFE7801E59BF2E59A5404CA
:101BB300FF7803EFF2E59A30E105539AFDC212D0A4
:101BC300D0D0E032EFB40A07740D121BD2740A307E
:101BD3009811A899B8130CC2983098FDA899C29887
:101BE300B811F63099FDC299F59922C0E0C0D075BD
:101BF300D018309810C2987800E599F2A29AE4338D
:101C0300FF7802EFF2309904C299C212D0D0D0E02B
:101C130032750B00750A00750900750800750C0113
:101C2300438E805389F0758A20758CD1D2AF227E82
:101C3300007F00120ED47E007F00121A2F2212158D
:101C4300B6121C32121B381217BF221207087E006D
:101C53007F02121A2F80F422787FE4F6D8FD758173
:101C630092021C41B2907E007F02121A2F80F5224D
:101C7300B2917E007F05121A2F80F5225461736B97
:101C83002064656C6574652E207461736B5F703DB1
:101C93002570207461736B5F6E616D653D25730004
:101CA3005461736B20737461636B206D696E696D2E
:101CB300756D2031362E207461736B5F6E616D65B7
:101CC3003D257320737461636B5F6C656E3D2562A4
:101CD30075004E6F7420656E6F756768206D656D56
:101CE3006F72792073706163652E207461736B5F0B
:101CF3006E616D653D257320703D2570004F535F08
:101D030049646C655461736B004F535F496E69742A
:0D1D1300007461736B31007461736B3200FA
:00000001FF
