:03000000021F05D7
:10000B00021916750C10750D93150DAF0DEF70F9D8
:10001B00150CAF0CEF70F222021E1D759850759ADD
:10002B001075D7E675D6FF438E15D2AC43AF01D210
:06003B00AFC213C2122245
:10004300021DA3900018EEF0A3EFF0900018E0FE5D
:10005300A3E0FFEF4E70030203AE900018E0FEA38F
:10006300E0FF8F828E83E0FBA3E0FAA3E0F9AE0208
:10007300AF0190001AEEF0A3EFF090001AE0FEA398
:10008300E0FFEF4E70030203AE90001AE0FEA3E020
:10009300FF8F828E83E5822407F582E5833400F5A2
:1000A30083E0FF7E00EF64054E600302037F900050
:1000B3001AE0FEA3E0FFAA06A9077B0190001CEB50
:1000C300F0A3EAF0A3E9F0900018E0FEA3E0FF8FAD
:1000D300828E83E0FBA3E0FAA3E0F9C003C002C071
:1000E3000190001AE0FEA3E0FFAA06A9077B01D056
:1000F30082D083D0E06B7008E965827003EA658380
:10010300600302019A90001AE0FEA3E0FF8F828E43
:1001130083E5822412F582E5833400F583E0FBA3B3
:10012300E0FAA3E0F9900018E0FEA3E0FF8F828ECF
:1001330083EBF0A3EAF0A3E9F0900018E0FEA3E05C
:10014300FF8F828E83E5822406F582E5833400F5F2
:1001530083E014F0900018E0FEA3E0FF8F828E830B
:10016300E5822406F582E5833400F583E0FF7E0013
:10017300EF4E60030202CB7B007A007900900018F7
:10018300E0FEA3E0FF8F828E83A3A3A3EBF0A3EA99
:10019300F0A3E9F00202CB900018E0FEA3E0FF8F8A
:1001A300828E83A3A3A3E0FBA3E0FAA3E0F9C00339
:1001B300C002C00190001AE0FEA3E0FFAA06A9074F
:1001C3007B01D082D083D0E06B7008E96582700335
:1001D300EA6583705590001AE0FEA3E0FF8F828EDC
:1001E30083E582240FF582E5833400F583E0FBA3E6
:1001F300E0FAA3E0F9900018E0FEA3E0FF8F828EFF
:1002030083A3A3A3EBF0A3EAF0A3E9F0900018E023
:10021300FEA3E0FF8F828E83E5822406F582E583C9
:100223003400F583E014F00202CB90001AE0FEA341
:10023300E0FF8F828E83E5822412F582E58334000A
:10024300F583E0FBA3E0FAA3E0F9C003C002C00119
:1002530090001AE0FEA3E0FF8F828E83E582240FD5
:10026300F582E5833400F583E0FBA3E0FAA3E0F92C
:10027300758212758300120C6B90001AE0FEA3E0E6
:10028300FF8F828E83E582240FF582E5833400F5A8
:1002930083E0FBA3E0FAA3E0F9C003C002C001902E
:1002A300001AE0FEA3E0FF8F828E83E5822412F51D
:1002B30082E5833400F583E0FBA3E0FAA3E0F9755C
:1002C300820F758300120C6B90001AE0FEA3E0FF0F
:1002D3008F828E83E5822412F582E5833400F583D1
:1002E300E0FBA3E0FAA3E0F9AE02AF0190001AEE3F
:1002F300F0A3EFF090001CE0FBA3E0FAA3E0F97594
:100303008203758300120BF6FFAEF0AA06A9077BE2
:10031300FF150E150E150EA80EEBF208EAF208E90A
:10032300F290001CE0FBA3E0FAA3E0F9150E150E12
:10033300150EA80EEBF208EAF208E9F27BFF7A1F2A
:1003430079407F001216D9E50E2406F50E90001CA5
:10035300E0FBA3E0FAA3E0F9758205758300120BB5
:10036300F6FFAEF012181290001CE0FBA3E0FAA314
:10037300E0F9AE02AF0112181202007D90001AE0FC
:10038300FEA3E0FF8F828E83E5822412F582E5834C
:100393003400F583E0FBA3E0FAA3E0F9AE02AF017A
:1003A30090001AEEF0A3EFF002007D22E5522446FE
:1003B300F8E605522278433010027846E475F001DE
:1003C300120D98020B882009EB7F2ED2098018EFBB
:1003D300540F2490D43440D4FF300D0BEF24BFB41A
:1003E3001A0050032461FFE553600215530556E5D7
:1003F300567002055530100D7843E475F001120D67
:1004030098EF020D86021DF67403D2108003E4C236
:1004130010F5528B438A448945E4F553F555F55657
:10042300E55360077F201203EA80F57554FFC20A83
:10043300C209C20BC20CC20EC20FC2111203B8FF13
:10044300700D3010057F001203FBAF56AE5522B47A
:10045300255FC2D5C20D1203B8FF24D0B40A0050E1
:100463001A75F00A785330D50508B6FF0106C6A4FD
:1004730026F620D5047002D20C80D924CFB41A00FA
:10048300EF5004C2E5D20D0205FBD20A80C6D209A1
:1004930080C0D20B80BCD2D580BAD20E80B47F206C
:1004A3001203EA200B077401B5530040F11203AFA6
:1004B300FF1203EA020423D211D20F80951203AF75
:1004C300FB1203AFFA1203AFF94A4B700679CC7AE9
:1004D300067BFF200B2EE553602A7E008E827583F8
:1004E30000120D5960060EEE655470F0C2D5EBC0D4
:1004F300E0EAC0E0E9C0E0EE120642D0E0F9D0E065
:10050300FAD0E0FB120B88FF60AAEBC0E0EAC0E080
:10051300E9C0E01203EAD0E02401F9D0E03400FAA4
:10052300D0E0FBE5540460DCD554D980877BFF7AA7
:1005330006793ED20B809C791080027908C20FC2E3
:10054300118008D2D5790A8004790AC2D5E554040A
:100553007002F554E4FAFDFEFF1203AFFC7B0820A2
:100563000A131203AFFD7B1030090A1203AFFE1208
:1005730003AFFF7B20EC3382D592D55013C3E43015
:1005830009069FFFE49EFEE4200A039DFDE49CFC14
:10059300E4CBF8C20AEC700CCFCECDCCE824F8F84B
:1005A30070F38017C3EF33FFEE33FEED33FDEC330F
:1005B300FCEB33FB994002FB0FD8E9EB300A05F85B
:1005C300D0E0C448B20AC0E00AEC4D4E4F78207B1D
:1005D3000070C2EAB5540040BCC0E0120644D0F03B
:1005E300D0E0200A04C4C0E0C4B20AC0F01203D3AE
:1005F300D0F0D5F0EB020423120CC404C053053A27
:100603005804914C048D42053E4F05464405464926
:1006130004A643054C5505304605304505304706CD
:10062300EC5004952D04992E04BC2B049D2304BA8D
:100633002006D52A045548000004B43F3F3F007903
:100643000AA2D5200C14300E09B910020404B9080B
:100653000104A2D5200F02500104200B68920BB5B0
:1006630053005034C0E07F20300C197F30A20B724E
:100673000F720E500F12069BC20BC20FC20EC21195
:100683007F30800F300E03E9C0E01203EA300E031F
:10069300D0E0F9D0E0B553CC300E177F30B9100C51
:1006A3001203EA7F58300D077F788003B9080312DD
:1006B30003EA300B057F2D0203EA7F202011F87F28
:1006C3002B200FF322920B80CF286E756C6C2900C0
:1006D300D20A1203AF300AF8C20A785330D50108A0
:1006E300F60204552D504349581203AF2403B405B1
:1006F300004001E49006E7931203DB743A1203DB34
:10070300D20C75530402053A900004EBF0A3EAF00F
:10071300A3E9F0900007ECF0A3EDF090000AE0FFEE
:100723007E00C3EF9410EE64809480503C90000AE6
:10073300E0FF150EA80EEFF2900007E0FEA3E0FF26
:10074300AA06A9077BFF150E150E150EA80EEBF2D0
:1007530008EAF208E9F27BFF7A1F79C47F001216D8
:10076300D9E50E2404F50E80FE90000AE0FF7E001A
:100773007DA5900009E0F97A007B00120CEA7F0363
:100783007E001219D190000BEEF0A3EFF07F157EDF
:10079300001219D190000DEEF0A3EFF090000BE0E2
:1007A300FEA3E0FFEF4E600C90000DE0FEA3E0FF20
:1007B300EF4E700F7E1F7FF6900007E0FCA3E0FD75
:1007C300121BB590000DE0FEA3E0FF90000BE0FCD0
:1007D300A3E0FD12141F900009E0FF90000DE0FC60
:1007E300A3E0FD8D828C83E5822405F582E58334C5
:1007F30000F583E0FCA3E0FD8D828C83EFF0900095
:100803000AE0FF90000DE0FCA3E0FD8D828C83E500
:10081300822405F582E5833400F583E0FCA3E0FD43
:100823008D828C83A3EFF0900004E0FBA3E0FAA396
:10083300E0F9AE02AF01900009E0FEA806A607901A
:100843000009E004F0900004E0FBA3E0FAA3E0F960
:10085300AE02AF01EEFF7E00900009E0FEA806A6FF
:1008630007900004E0FBA3E0FAA3E0F9C003C00291
:10087300C0017BFF7A1E79CAD082D083D0E06B702F
:1008830008E965827003EA6583602E90000FE4F047
:1008930090000FE0FF7E00C3EF940DEE6480948020
:1008A3005017900009E004F0900009E0FFA80776D4
:1008B3000090000FE004F080D7900009E0FF900063
:1008C3000DE0FCA3E0FD8D828C83E5822405F58297
:1008D300E5833400F583E0FCA3E0FD8D828C83A3E4
:1008E300A3EFF0900004E0FBA3E0FAA3E0F990008B
:1008F3000DE0FEA3E0FF8F828E83EBF0A3EAF0A36B
:10090300E9F0900007E0FEA3E0FF90000DE0FCA3F8
:10091300E0FD8D828C83A3A3A3EEF0A3EFF0900000
:100923000DE0FEA3E0FF8F828E83E5822407F5822C
:10093300E5833400F5837401F09001F2E0FEA3E057
:10094300FF90000DE0FCA3E0FD1212AC90000DE05F
:10095300FEA3E0FFAA06A9077B01229001F0E0FEB7
:10096300A3E0FFEF4E60239001F0E0FEA3E0FF8FD2
:10097300828E83E582240CF582E5833400F583E0DF
:10098300FF7E00EF4E6003020B879001F0E0FEA3B1
:10099300E0FF121B529001F0E0FEA3E0FFEF4E7068
:1009A30003020A9B9001F0E0FEA3E0FF8F828E8397
:1009B300E5822407F582E5833400F583E0FFEF1237
:1009C3000CC409D2020A03030A880500000A9B909B
:1009D30001F0E0FEA3E0FF8F828E83E5822407F51A
:1009E30082E5833400F5837401F09001F2E0FEA305
:1009F300E0FF9001F0E0FCA3E0FD1212AC020A9BC1
:100A03009001F0E0FEA3E0FF8F828E83E582240D48
:100A1300F582E5833400F583E0FF7E00EF4E7050EE
:100A23009001F0E0FEA3E0FF8F828E83E582240E27
:100A3300F582E5833400F583E0FF7E00EF4E7030EE
:100A43009001F0E0FEA3E0FF8F828E83E58224070E
:100A5300F582E5833400F5837401F09001F2E0FE42
:100A6300A3E0FF9001F0E0FCA3E0FD1212AC8028AC
:100A73009001F4E0FEA3E0FF9001F0E0FCA3E0FDB1
:100A83001212AC80139001F6E0FEA3E0FF9001F098
:100A9300E0FCA3E0FD1212AC9001F2E0FEA3E0FF44
:100AA30012112CAE02AF019001F0EEF0A3EFF09023
:100AB30001F0E0FEA3E0FFEF4E7003020B8790010D
:100AC300F0E0FEA3E0FF8F828E83E5822407F582A8
:100AD300E5833400F583E0FF7E00EF64014E70523E
:100AE3009001F0E0FEA3E0FF8F828E83E58224076E
:100AF300F582E5833400F5837402F09001F0E0FEA3
:100B0300A3E0FF8F828E83E582240CF582E5833494
:100B130000F583740AF09001F0E0FEA3E0FF8F82FA
:100B23008E83E582240DF582E5833400F58374FF1B
:100B3300F0229001F0E0FEA3E0FF8F828E83E58236
:100B43002407F582E5833400F583E0FF7E00EF643C
:100B5300054E6003020AB29001F6E0FEA3E0FF90A7
:100B630001F0E0FCA3E0FD1212AC9001F2E0FEA361
:100B7300E0FF12112CAE02AF019001F0EEF0A3EFF3
:100B8300F0020AB222BB010689828A83E022500264
:100B9300E722BBFE02E32289828A83E49322BC001C
:100BA3000BBE0029EF8DF084FFADF022E4CCF87585
:100BB300F008EF2FFFEE33FEEC33FCEE9DEC984094
:100BC30005FCEE9DFE0FD5F0E9E4CEFD22EDF8F530
:100BD300F0EE8420D21CFEADF075F008EF2FFFED90
:100BE30033FD4007985006D5F0F222C398FD0FD588
:100BF300F0EA22BB0110E58229F582E5833AF58309
:100C0300E0F5F0A3E0225009E92582F886F008E632
:100C130022BBFE0AE92582F8E2F5F008E222E58329
:100C23002AF583E993F5F0A3E99322ECF0A3EDF021
:100C3300A3EEF0A3EFF022A8828583F0D083D082C5
:100C4300120C51120C51120C51120C51E473E49317
:100C5300A3C583C5F0C583C8C582C8F0A3C583C532
:100C6300F0C583C8C582C822BB0120E58229F5826D
:100C7300E5833AF583D0F0D0E0F8D0E0F9D0E0FA9C
:100C8300D0E0FBE8C0E0C0F0020D475018E9258230
:100C9300F8D083D082D0E0F9D0E0FAD0E0FBC08274
:100CA300C083020D3EBBFE18E92582F8D083D082B3
:100CB300D0E0F9D0E0FAD0E0FBC082C083020D504F
:100CC30022D083D082F8E4937012740193700DA341
:100CD300A393F8740193F5828883E4737402936891
:100CE30060EFA3A3A380DFEF4E6012EF60010EED70
:100CF300BB010B89828A83F0A3DFFCDEFA2289F031
:100D03005007F709DFFCA9F022BBFEFCF309DFFC67
:100D1300A9F022EF8DF0A4A8F0CF8CF0A428CE8DFB
:100D2300F0A42EFE22C5F0F8A3E028F0C5F0F8E504
:100D330082158270021583E038F022EBF608EAF69A
:100D430008E9F622EBF0A3EAF0A3E9F022EBF208BC
:100D5300EAF208E9F222BB010CE58229F582E58378
:100D63003AF583E0225006E92582F8E622BBFE0627
:100D7300E92582F8E222E58229F582E5833AF583C3
:100D8300E49322BB010689828A83F0225002F72270
:100D9300BBFE01F322FAE6FB0808E6F925F0F61894
:100DA300E6CA3AF6229001F0E0FEA3E0FFEF4E70B0
:100DB30003020E7F9001F0E0FEA3E0FF8F828E839B
:100DC300E5822408F582E5833400F583E0FCA3E0A3
:100DD300FDA3E0FEA3E0FF7B017A0079007800EF3A
:100DE3002BFFEE3AFEED39FDEC38FC9001F0E0FA12
:100DF300A3E0FB8B828A83E5822408F582E58334B2
:100E030000F583120C2E9001F0E0FEA3E0FF8F8229
:100E13008E83E582240CF582E5833400F583E0FFBD
:100E23007E00EF4E601B9001F0E0FEA3E0FF8F8297
:100E33008E83E582240CF582E5833400F583E01488
:100E4300F09001F0E0FEA3E0FF8F828E83E5822421
:100E53000DF582E5833400F583E0FF7E00EF4E60FD
:100E63001B9001F0E0FEA3E0FF8F828E83E58224D6
:100E73000DF582E5833400F583E014F09001F4E08E
:100E8300FEA3E0FF8F828E83E5822406F582E5834D
:100E93003400F583E0FF900036EFF0900036E0FF7A
:100EA3007E00D3EF9400EE648094805003020FA081
:100EB3009001F4E0FEA3E0FF12112CAE02AF01900B
:100EC3000034EEF0A3EFF0900034E0FEA3E0FFEF78
:100ED3004E7003020F97900034E0FEA3E0FF8F8271
:100EE3008E83E582240DF582E5833400F583E0FFEC
:100EF3007E00EF4E601B900034E0FEA3E0FF8F8284
:100F03008E83E582240DF582E5833400F583E014B6
:100F1300F0900034E0FEA3E0FF8F828E83E582240D
:100F23000DF582E5833400F583E0FF7E00EF4E701C
:100F330050900034E0FEA3E0FF8F828E83E582248D
:100F43000EF582E5833400F583E0FF7E00EF4E70FB
:100F530030900034E0FEA3E0FF8F828E83E582248D
:100F630007F582E5833400F5837401F09001F2E024
:100F7300FEA3E0FF900034E0FCA3E0FD1212AC807E
:100F8300139001F4E0FEA3E0FF900034E0FCA3E043
:100F9300FD1212AC900036E014F0020E9E22900176
:100FA300F0E4F0A3E4F07F077E001219D19001F280
:100FB300EEF0A3EFF09001F2E0FEA3E0FFEF4E703E
:100FC3000B7E207F377C1F7D91121BB57B007A003F
:100FD30079009001F2E0FEA3E0FF8F828E83EBF0B5
:100FE300A3EAF0A3E9F07B007A0079009001F2E034
:100FF300FEA3E0FF8F828E83A3A3A3EBF0A3EAF00B
:10100300A3E9F09001F2E0FEA3E0FF8F828E83E577
:10101300822406F582E5833400F583E4F07F077EBE
:10102300001219D19001F4EEF0A3EFF09001F4E077
:10103300FEA3E0FFEF4E700B7E207F377C1F7DA168
:10104300121BB57B007A0079009001F4E0FEA3E067
:10105300FF8F828E83EBF0A3EAF0A3E9F07B007AA3
:101063000079009001F4E0FEA3E0FF8F828E83A35A
:10107300A3A3EBF0A3EAF0A3E9F09001F4E0FEA34D
:10108300E0FF8F828E83E5822406F582E5833400B8
:10109300F583E4F07F077E001219D19001F6EEF09C
:1010A300A3EFF09001F6E0FEA3E0FFEF4E700B7E9E
:1010B300207F377C1F7DB3121BB57B007A0079003C
:1010C3009001F6E0FEA3E0FF8F828E83EBF0A3EAAC
:1010D300F0A3E9F07B007A0079009001F6E0FEA32B
:1010E300E0FF8F828E83A3A3A3EBF0A3EAF0A3E92F
:1010F300F09001F6E0FEA3E0FF8F828E83E5822469
:1011030006F582E5833400F583E4F07BFF7A1E79EC
:10111300CA7C207D2B7F7F900009EFF090000A743A
:1011230014F012070B121E802290002CEEF0A3EF96
:10113300F090002CE0FEA3E0FFEF4E603390002C14
:10114300E0FEA3E0FF8F828E83E0FBA3E0FAA3E03F
:10115300F9C003C002C0017B007A007900D082D0BD
:1011630083D0E06B7008E965827003EA65837007DA
:101173007B007A0079002290002CE0FEA3E0FF8F31
:10118300828E83E0FBA3E0FAA3E0F9AE02AF019005
:10119300002EEEF0A3EFF090002EE0FEA3E0FF8F11
:1011A300828E83E5822412F582E5833400F583E0A1
:1011B300FBA3E0FAA3E0F990002CE0FEA3E0FF8F8D
:1011C300828E83EBF0A3EAF0A3E9F090002CE0FE1B
:1011D300A3E0FF8F828E83E5822406F582E58334C4
:1011E30000F583E014F090002CE0FEA3E0FF8F8273
:1011F3008E83E5822406F582E5833400F583E0FFE0
:101203007E00EF4E701F7B007A00790090002CE087
:10121300FEA3E0FF8F828E83A3A3A3EBF0A3EAF0E8
:10122300A3E9F080297B007A007900C003C002C0E3
:101233000190002CE0FEA3E0FF8F828E83E0FBA3EE
:10124300E0FAA3E0F975820F758300120C6B7B0043
:101253007A00790090002EE0FEA3E0FF8F828E8358
:10126300E5822412F582E5833400F583EBF0A3EAEB
:10127300F0A3E9F07B007A00790090002EE0FEA352
:10128300E0FF8F828E83E582240FF582E5833400AD
:10129300F583EBF0A3EAF0A3E9F090002EE0FEA3C0
:1012A300E0FFAA06A9077B0122900028EEF0A3EF36
:1012B300F090002AECF0A3EDF0900028E0FEA3E00C
:1012C300FFEF4E700302141E90002AE0FEA3E0FF1E
:1012D300EF4E700302141E900028E0FEA3E0FF8F80
:1012E300828E83A3A3A3E0FBA3E0FAA3E0F9C003E8
:1012F300C002C0017B007A007900D082D083D0E0A5
:101303006B7008E965827003EA6583706390002A55
:10131300E0FEA3E0FFAA06A9077B01900028E0FEF8
:10132300A3E0FF8F828E83EBF0A3EAF0A3E9F090B2
:10133300002AE0FEA3E0FFAA06A9077B019000288C
:10134300E0FEA3E0FF8F828E83A3A3A3EBF0A3EAC7
:10135300F0A3E9F0900028E0FEA3E0FF8F828E83E4
:10136300E5822406F582E5833400F583E004F02268
:1013730090002AE0FEA3E0FFAA06A9077B01C003B1
:10138300C002C001900028E0FEA3E0FF8F828E839D
:10139300A3A3A3E0FBA3E0FAA3E0F975821275838C
:1013A30000120C6B900028E0FEA3E0FF8F828E8377
:1013B300A3A3A3E0FBA3E0FAA3E0F990002AE0FED5
:1013C300A3E0FF8F828E83E582240FF582E58334C9
:1013D30000F583EBF0A3EAF0A3E9F090002AE0FE26
:1013E300A3E0FFAA06A9077B01900028E0FEA3E083
:1013F300FF8F828E83A3A3A3EBF0A3EAF0A3E9F00C
:10140300900028E0FEA3E0FF8F828E83E58224060E
:10141300F582E5833400F583E004F022900024EEA6
:10142300F0A3EFF0900026ECF0A3EDF0900026E09F
:10143300FEA3E0FF8F828E83E4F0900026E0FEA3FC
:10144300E0FF8F828E83A3E4F0900026E0FEA3E00A
:10145300FF8F828E83A3A3E4F07B007A0079009050
:101463000024E0FEA3E0FF8F828E83EBF0A3EAF07B
:10147300A3E9F0900024E0FEA3E0FF8F828E83A314
:10148300A3A3E4F0A3E4F0900026E0FEA3E0FF9022
:101493000024E0FCA3E0FD8D828C83E5822405F526
:1014A30082E5833400F583EEF0A3EFF0900024E0AF
:1014B300FEA3E0FF8F828E83E5822407F582E58316
:1014C3003400F5837401F0900024E0FEA3E0FF8F65
:1014D300828E83E5822408F582E5833400F5831246
:1014E3000C3A00000000900024E0FEA3E0FF8F828E
:1014F3008E83E582240CF582E5833400F583E4F0E2
:10150300900024E0FEA3E0FF8F828E83E582240D0A
:10151300F582E5833400F583E4F0900024E0FEA334
:10152300E0FF8F828E83E582240EF582E58334000B
:10153300F583E4F07B007A007900900024E0FEA3B9
:10154300E0FF8F828E83E582240FF582E5833400EA
:10155300F583EBF0A3EAF0A3E9F07B007A007900CE
:10156300900024E0FEA3E0FF8F828E83E5822412A5
:10157300F582E5833400F583EBF0A3EAF0A3E9F009
:1015830022150EA80EEBF2150EA80EEDF2150EA8FD
:101593000EEFF2150E9001F0E0FEA3E0FFEF4E70A8
:1015A300030216D29001F0E0FEA3E0FF8F828E8348
:1015B300E5822407F582E5833400F5837403F0A8FC
:1015C3000E08E2FFEF5401FF7E00EF64014E7060EE
:1015D3009001F0E0FEA3E0FF8F828E83E582240D6D
:1015E300F582E5833400F583E0FFC374FF9FFFA812
:1015F3000EEFF2A80E0808E2FFA80EE2FEEEC39F6C
:1016030040047F00800EA80EE2FFA80E0808E2FE49
:10161300C3EE9FFF9001F0E0FCA3E0FD8D828C837D
:10162300E582240DF582E5833400F583EFF0803104
:10163300A80E08E2FFEF5402FF7E00EF64024E7033
:1016430020A80E0808E2FF9001F0E0FCA3E0FD8D66
:10165300828C83E582240DF582E5833400F583EFE4
:10166300F0A80E08E2FFEF5410FF7E00EF64104E67
:101673007021E50E2403F8E2FF9001F0E0FCA3E003
:10168300FD8D828C83E582240EF582E5833400F59B
:1016930083EFF09001F0E0FEA3E0FF8F828E83E5FD
:1016A30082240CF582E5833400F583E4F09001F0A5
:1016B300E0FEA3E0FF8F828E83E5822407F582E5B7
:1016C300833400F583E0FF7E00EF64024E70DEE5B5
:1016D3000E2404F50E22150E150E150EA80EEBF2B0
:1016E30008EAF208E9F2150EA80EEFF2E50E24F966
:1016F300F50E2012FDD2127D017C007FA07E001228
:101703001D76A80EEEF208EFF2A80EE2FE08E2FF45
:10171300EF4E70127BFF7A20793FE50E2407F8E243
:10172300FF121A6D80FE7BFEE50E2408F97A00E9AC
:101733002403F9EA3400FAA80E0808EBF208EAF2E7
:1017430008E9F2A80EE2FE08E2FFAA06A9077B0158
:10175300C003C002C001E50E2408F8E2FB08E2FA68
:1017630008E2F98B3D8A3E893FA80E0808E2FB0890
:10177300E2FA08E2F98B408A418942D001D002D0D3
:1017830003121D1BE50E2405F8EEF208EFF27B00B1
:101793007A007900A80E0808EBF208EAF208E9F2E9
:1017A300E50E2405F8E2FE08E2FFC3EE64809480B0
:1017B3004015E50E2405F8E2FE08E2FFC3EF94A00E
:1017C300EE6480948040127BFF7A207968E50E24D2
:1017D30007F8E2FF121A6D80FEA80EE2FE08E2FF90
:1017E300AA06A9077B01E50E2407F8E2FF121A6D8A
:1017F3007D0AE50E2407F8E2FF121D49A80EE2FE5A
:1018030008E2FF121812C212E50E240BF50E22EFA6
:101813004E7003021915900012E07002A3E07003EA
:10182300021915CDEFCDCCEECCED24FCFDEC34FF4D
:10183300FC753D00753E10853E82853D83E0FAA32D
:10184300E08A3FF540453F6011D3E5409FE53F9E69
:101853005008853F3D85403E80DDE540453F604A79
:101863008D828C83A3A3E0FAA3E02FFFEA3EFEEF71
:1018730065407003EE653F7031854082853F83A3E9
:10188300A3E0FEA3E02404FFE43E8D828C83A3A3A4
:101893008FF0120D28854082853F83E0FFA3E08D02
:1018A300828C83CFF0A3EFF0800B8D828C83E53F96
:1018B300F0A3E540F0853E82853D83A3A3E0FEA32C
:1018C300E0253EFFEE353DFEEF2404FFE43EFEEF50
:1018D3006D7002EE6C70308D828C83A3A3E0FEA347
:1018E300E02404FFE43E853E82853D83A3A38FF07D
:1018F300120D288D828C83E0FFA3E0853E82853D17
:1019030083CFF0A3EFF022853E82853D83ECF0A3E5
:10191300EDF022C0E0C0F0C083C082C0D0C000C0E0
:1019230001C002C003C004C005C006C00775D000D3
:101933009001F0E0FFA3E04F6023AF819001F0E05E
:10194300FCA3E0FDED2405FDEC3400FC8D828C83CB
:10195300E0FCA3E0FD8D828C83A3A3EFF090004015
:10196300E0F581E50B2401F50BE50A3400F50AE502
:10197300093400F509E5083400F508120DA8120929
:101983005E9001F0E0FFA3E04F6028900040E58106
:10199300F09001F0E0FEA3E0FFEF2405FFEE34003A
:1019A300FE8F828E83E0FEA3E0FF8F828E83A3A34C
:1019B300E0F581D007D006D005D004D003D002D003
:1019C30001D000D0D0D082D083D0F0D0E0328E418D
:1019D3008F427E007F108F828E83E0FCA3E0FD4C5C
:1019E3007003FEFF228D828C83A3A3E0FAA3E0FBA6
:1019F300C39542EA95415008CEECCECFEDCF80D6C9
:101A0300C3EB9542F544EA9541F543C3E54494108D
:101A1300E543940050198D828C83E0FBA3E08F8211
:101A23008E83CBF0A3EBF0ED2404FFE43CFE2274A1
:101A3300FC2544F54474FF3543F5438D828C83A321
:101A4300A3F0A3E544F0ED2404FFE43CFEEF2544BA
:101A5300FFEE3543FE8F82F583A3A3E541F0A3E5B3
:101A630042F0EF2404FFE43EFE22150E150E150E80
:101A7300A80EEBF208EAF208E9F2150EA80EEFF24F
:101A8300A80EE2FF7E00EF4E702DA80E08E2FB08C1
:101A9300E2FA08E2F9120B88FFEF6048A80E08E2A9
:101AA300FB0808E2F92401F218E2FA3400F2120BFF
:101AB30088FF121EE180D3A80E08E2FB08E2FA08B1
:101AC300E2F9120B88FFEF601BA80E08E2FB08087F
:101AD300E2F92401F218E2FA3400F2120B88FF1241
:101AE3001EF380D3E50E2404F50E2290001FEBF0C5
:101AF300A3EAF0A3E9F0900022ECF0A3EDF0C2A971
:101B0300C28C90001FE0FBA3E0FAA3E0F9150E15C9
:101B13000E150EA80EEBF208EAF208E9F290002285
:101B2300E0FEA3E0FFAA06A9077BFF150E150E151D
:101B33000EA80EEBF208EAF208E9F27BFF7A2079AD
:101B4300047F001216D9E50E2406F50E80FE2290BE
:101B5300003CEEF0A3EFF090003CE0FEA3E0FFEFCB
:101B63004E604E90003CE0FEA3E0FF8F828E83E543
:101B7300822405F582E5833400F583E0FEA3E0FFCC
:101B8300121C15EF602B90003CE0FEA3E0FF8F8258
:101B93008E83E0FBA3E0FAA3E0F990003CE0FEA310
:101BA300E0FF8F828E83A3A3A3E0FCA3E0FD121AC0
:101BB300EE22900030EEF0A3EFF0900032ECF0A3B1
:101BC300EDF0900032E0FEA3E0FFAA06A9077BFF39
:101BD300150E150E150EA80EEBF208EAF208E9F23F
:101BE300900030E0FEA3E0FFAA06A9077BFF150ED5
:101BF300150E150EA80EEBF208EAF208E9F27BFFC8
:101C03007A1F79647F001216D9E50E2406F50E803B
:101C1300FE2290003AEEF0A3EFF090003AE0FEA32C
:101C2300E0FFEF4E70037F002290003AE0FEA3E056
:101C3300FF8F828E83A3E0FF90003AE0FCA3E0FDD8
:101C43008D828C83E0FEEE2FFFEF14FF7813A6073F
:101C53007813E6FFA807E6FF7E00EF64A54E600356
:101C63007F01227F002212095E9001F0E0FEA3E0D3
:101C7300FFEF4E602D900040E581F09001F0E0FE13
:101C8300A3E0FF8F828E83E5822405F582E583340A
:101C930000F583E0FEA3E0FF8F828E83A3A3E0FF22
:101CA3008F81D2A9D28C22EF4E7008FE7F01ED1DE9
:101CB30070011C900010EEF0A3EFF0A3ECF0A3ED85
:101CC300F0900010E0FEA3E0FFF5828E83E4F0A322
:101CD300F0ED24FCFDEC34FF8F828E83A3A3F0A3ED
:101CE300EDF0227BFF7A1F79327C207D967F57901F
:101CF3000009EFF090000A7414F012070B7BFF7ACF
:101D03001E79B37C207D9C7F6B900009EFF09000DF
:101D13000A7414F012070B22853D46853E47853F22
:101D230048EBC540FBEAC541FAE9C542F97F0978AA
:101D330049120B88F60809E970010ADFF4AB40AADF
:101D430041A94202040B150EA80EEDF2150EA80EC2
:101D5300EFF2A80EE2FF7E00EF4E700AA80E08E233
:101D6300FF121EE18008A80E08E2FF121EF3050E03
:101D7300050E228E3D8F3E120D168E3D8F3E12199B
:101D8300D18E3F8F40EF4E7003FEFF22AE3DAF3E3C
:101D93007D00AA3FA9407B01120CEAAE3FAF40226F
:101DA300C0E0C0D075D018E59A30E011539AFE78A0
:101DB30001E59BF2E59A5404FF7803EFF2E59A30CC
:101DC300E105539AFDC213D0D0D0E032150E150EA3
:101DD300A80EEEF208EFF2A80E08E2FF24FFF218B5
:101DE300E2FE34FFF2EF4E600512000E80E9050EAD
:101DF300050E22EFB40A07740D121E01740A3098FF
:101E030011A899B8130CC2983098FDA899C298B834
:101E130011F63099FDC299F59922C0E0C0D075D072
:101E230018309810C2987800E599F2A29AE433FF2B
:101E33007802EFF2309904C299C213D0D0D0E032C5
:101E4300150E150EA80EEEF208EFF2A80E08E2FF2B
:101E530024FFF218E2FE34FFF2EF4E70EE050E059A
:101E63000E227E027F007D007B017A027900120C34
:101E7300EA7E027F007D007C02121CAA22750B0001
:101E8300750A00750900750800438E805389F07543
:101E93008A20758CD1D2AF22121F147BFF7A20794E
:101EA3007F7F00121A6D120FA1121CE6121C692209
:101EB300D2917E007F02121DCFC2917B007D057FF0
:101EC3000112158480EA229001F6E0FEA3E0FF12DE
:101ED30000467B007D007F0212158480EA22150EE6
:101EE300A80EEFF2D213A80EE2FFEFF599050E222A
:101EF300150EA80EEFF2D213A80EE2FFEFF59B0525
:101F03000E22787FE4F6D8FD750E00758192021ECD
:101F13009B438E80D2AF121F23121E65120026220E
:101F23007E007F00121E437E007F00121DCF22B26F
:101F3300907B007D027F0212158480F3225461732B
:101F43006B2064656C6574652E207461736B5F70C0
:101F53003D2570207461736B5F6E616D653D257304
:101F6300004E6F7420656E6F756768206D656D6FC9
:101F730072792073706163652E2066756E635F6E80
:101F8300616D653D2573207661723D257000726534
:101F93006164795F7461736B5F6C69737400626C05
:101FA3006F636B65645F7461736B5F6C69737400FB
:101FB30068696464656E5F7461736B5F6C69737485
:101FC300005461736B20737461636B206D696E6978
:101FD3006D756D2031362E207461736B5F6E616D8C
:101FE300653D257320737461636B5F6C656E3D257E
:101FF3006275004F535F4372656174655461736B1F
:1020030000537461636B206F766572666C6F772E15
:10201300207461736B5F6E616D653D257320746120
:10202300736B5F703D2570004F535F49646C65545B
:1020330061736B004F535F496E6974004E6F742078
:10204300656E6F756768206D656D6F72792073704B
:1020530061636520666F72205354524255465F4C4C
:10206300454E2E0A005354524255465F4C454E206E
:10207300746F6F20736D616C6C2E0A00535452425F
:1020830055465F4C454E20746F6F20736D616C6CC9
:0F2093002E0A007461736B31007461736B32003D
:00000001FF
