:10000000021EAE7E007F64121D90220218D4750C71
:1000100010750D93150DAF0DEF70F9150CAF0CEFBA
:1000200070F222021DDE759850759A1075D7E6752C
:10003000D6FF438E15D2AC43AF01D2AFC213C2126A
:01004000229D
:10004300021D65E5522446F8E60552227843301036
:10005300027846E475F001120BD90209C92009EBB5
:100063007F2ED2098018EF540F2490D43440D4FF4C
:10007300300D0BEF24BFB41A0050032461FFE55386
:10008300600215530556E5567002055530100D787C
:1000930043E475F001120BD9EF020BC7021DB774CD
:1000A30003D2108003E4C210F5528B438A4489457E
:1000B300E4F553F555F556E55360077F20120081AB
:1000C30080F57554FFC20AC209C20BC20CC20EC22C
:1000D3000FC21112004FFF700D3010057F00120088
:1000E30092AF56AE5522B4255FC2D5C20D12004F52
:1000F300FF24D0B40A00501A75F00A785330D5059E
:1001030008B6FF0106C6A426F620D5047002D20C59
:1001130080D924CFB41A00EF5004C2E5D20D0202F5
:1001230092D20A80C6D20980C0D20B80BCD2D580BD
:10013300BAD20E80B47F20120081200B077401B560
:10014300530040F1120046FF1200810200BAD2119F
:10015300D20F8095120046FB120046FA120046F9B0
:100163004A4B700679637A037BFF200B2EE55360BD
:100173002A7E008E82758300120B9A60060EEE654E
:100183005470F0C2D5EBC0E0EAC0E0E9C0E0EE1283
:1001930002D9D0E0F9D0E0FAD0E0FB1209C9FF6040
:1001A300AAEBC0E0EAC0E0E9C0E0120081D0E0249D
:1001B30001F9D0E03400FAD0E0FBE5540460DCD56B
:1001C30054D980877BFF7A0279D5D20B809C791032
:1001D30080027908C20FC2118008D2D5790A80043F
:1001E300790AC2D5E554047002F554E4FAFDFEFF22
:1001F300120046FC7B08200A13120046FD7B1030D8
:10020300090A120046FE120046FF7B20EC3382D51A
:1002130092D55013C3E43009069FFFE49EFEE42009
:100223000A039DFDE49CFCE4CBF8C20AEC700CCFFE
:10023300CECDCCE824F8F870F38017C3EF33FFEE8C
:1002430033FEED33FDEC33FCEB33FB994002FB0F44
:10025300D8E9EB300A05F8D0E0C448B20AC0E00A96
:10026300EC4D4E4F78207B0070C2EAB5540040BC81
:10027300C0E01202DBD0F0D0E0200A04C4C0E0C426
:10028300B20AC0F012006AD0F0D5F0EB0200BA1245
:100293000B0501575301D15801284C01244201D5C4
:1002A3004F01DD4401DD49013D4301E35501C746EB
:1002B30001C74501C747038350012C2D01302E018F
:1002C300532B013423015120036C2A00EC48000016
:1002D300014B3F3F3F00790AA2D5200C14300E0991
:1002E300B910020404B9080104A2D5200F02500179
:1002F30004200B68920BB553005034C0E07F2030CC
:100303000C197F30A20B720F720E500F120332C200
:100313000BC20FC20EC2117F30800F300E03E9C033
:10032300E0120081300E03D0E0F9D0E0B553CC30B9
:100333000E177F30B9100C1200817F58300D077FE4
:10034300788003B90803120081300B057F2D02006A
:10035300817F202011F87F2B200FF322920B80CF77
:10036300286E756C6C2900D20A120046300AF8C256
:100373000A785330D50108F60200EC2D5043495852
:100383001200462403B405004001E490037E931257
:100393000072743A120072D20C7553040201D190A8
:1003A3000018EEF0A3EFF0900018E0FEA3E0FF4E7C
:1003B30070030206E6900018E0A3E0F5828E83E066
:1003C300FBA3E0FAA3E0F9AE02FF90001AEEF0A35C
:1003D300EFF090001AE0FEA3E0FF4E70030206E682
:1003E30090001AE0A3E0F5828E832407F582E5836B
:1003F3003400F583E0FF640560030206BA90001A37
:10040300E0A3E0FFAA06F97B01A3EBF0A3EAF0A3C4
:10041300E9F0900018E0FEA3E0FFF5828E83E0FB95
:10042300A3E0FAA3E0F9C003C002C00190001AE000
:10043300FEA3E0FFAA06F97B01D082D083D0E06B54
:100443007008E965827003EA658360030204D4904F
:10045300001AE0FEA3E0FFF5828E832412F582E505
:10046300833400F583E0FBA3E0FAA3E0F9900018DE
:10047300E0FEA3E0FFF5828E83EBF0A3EAF0A3E9AD
:10048300F0900018E0FEA3E0FFF5828E832406F5CA
:1004930082E5833400F583E014F0900018E0FEA3B6
:1004A300E0FFF5828E832406F582E5833400F5832D
:1004B300E0FF600302060DFBFAF9900018E0A3E0E9
:1004C300FFF5828E83A3A3A3EBF0A3F0A3F00206B0
:1004D3000D900018E0FEA3E0FFF5828E83A3A3A393
:1004E300E0FBA3E0FAA3E0F9C003C002C00190005F
:1004F3001AE0FEA3E0FFAA06F97B01D082D083D0E5
:10050300E06B7008E965827003EA658370519000BF
:100513001AE0FEA3E0FFF5828E83240FF582E583C4
:100523003400F583E0FBA3E0FAA3E0F9900018E0C0
:10053300FEA3E0FFF5828E83A3A3A3EBF0A3EAF06F
:10054300A3E9F0900018E0FEA3E0FFF5828E832478
:1005530006F582E5833400F583E014F002060D907E
:10056300001AE0FEA3E0FFF5828E832412F582E5F4
:10057300833400F583E0FBA3E0FAA3E0F9C003C0F2
:1005830002C00190001AE0A3E0F5828E83240FF5E8
:1005930082E5833400F583E0FBA3E0FAA3E0F97579
:1005A3008212758300120AAC90001AE0FEA3E0FFEA
:1005B300F5828E83240FF582E5833400F583E0FB17
:1005C300A3E0FAA3E0F9C003C002C00190001AE05F
:1005D300A3E0F5828E832412F582E5833400F5834C
:1005E300E0FBA3E0FAA3E0F975820F758300120A1A
:1005F300AC900018E0FEA3E0FFF5828E832406F59D
:1006030082E5833400F583E014F090001AE0FEA342
:10061300E0FFF5828E832412F582E5833400F583AF
:10062300E0FBA3E0FAA3E0F9AE02FF90001AEEF0BC
:10063300A3EFF0A3E0FBA3E0FAA3E0F9758203754F
:100643008300120A37FFAEF0AA06F97BFF150E15D9
:100653000E150EA80EEBF208EAF208E9F290001C60
:10066300E0FBA3E0FAA3E0F9150E150E150EA80E94
:10067300EBF208EAF208E9F27BFF7A1F790A7F00BE
:10068300121581E50E2406F50E90001CE0FBA3E095
:10069300FAA3E0F9758205758300120A37FFAEF0FD
:1006A3001217D090001CE0FBA3E0FAA3E0F9AE021E
:1006B300FF1217D00203D590001AE0FEA3E0FFF566
:1006C300828E832412F582E5833400F583E0FBA355
:1006D300E0FAA3E0F9AE02FF90001AEEF0A3EFF008
:1006E3000203D5229001F0E4F0A3F07F07FE121974
:1006F3008F9001F2EEF0A3EFF09001F2E0FEA3E0A1
:10070300FF4E700B7E207F997C1F7D5B121BBE7B8F
:10071300007A0079009001F2E0FEA3E0FFF5828EFB
:1007230083EBF0A3F0A3F09001F2E0FEA3E0FFF56A
:10073300828E83A3A3A3EBF0A3F0A3F09001F2E0D6
:10074300FEA3E0FFF5828E832406F582E583340061
:10075300F583E4F09001F2E0FEA3E0FFF5828E83DF
:10076300A3A3A3E0FBA3E0FAA3E0F9150E150E156E
:100773000EA80EEBF208EAF208E9F29001F2E0FEAD
:10078300A3E0FFF5828E83E0FBA3E0FAA3E0F91573
:100793000E150E150EA80EEBF208EAF208E9F29018
:1007A30001F2E0FEA3E0FFAA06F97B01150E150E88
:1007B300150EA80EEBF208EAF208E9F27BFF7A1FA6
:1007C300796B7F00121581E50E2409F50E7F077EF4
:1007D3000012198F9001F4EEF0A3EFF09001F4E012
:1007E300FEA3E0FF4E700B7E207F997C1F7D8A1253
:1007F3001BBE7B007A0079009001F4E0FEA3E0FFCA
:10080300F5828E83EBF0A3F0A3F09001F4E0FEA356
:10081300E0FFF5828E83A3A3A3EBF0A3F0A3F090F4
:1008230001F4E0FEA3E0FFF5828E832406F582E562
:10083300833400F583E4F09001F4E0FEA3E0FFF5D8
:10084300828E83A3A3A3E0FBA3E0FAA3E0F9150E32
:10085300150E150EA80EEBF208EAF208E9F2900164
:10086300F4E0FEA3E0FFF5828E83E0FBA3E0FAA3AE
:10087300E0F9150E150E150EA80EEBF208EAF208B4
:10088300E9F29001F4E0FEA3E0FFAA06F97B01156B
:100893000E150E150EA80EEBF208EAF208E9F27B2C
:1008A300FF7A1F799C7F00121581E50E2409F50E4E
:1008B3007F077E0012198F9001F6EEF0A3EFF09000
:1008C30001F6E0FEA3E0FF4E700B7E207F997C1FB4
:1008D3007DBD121BBE7B007A0079009001F6E0FE1D
:1008E300A3E0FFF5828E83EBF0A3F0A3F09001F673
:1008F300E0FEA3E0FFF5828E83A3A3A3EBF0A3F0B6
:10090300A3F09001F6E0FEA3E0FFF5828E832406B8
:10091300F582E5833400F583E4F09001F6E0FEA36D
:10092300E0FFF5828E83A3A3A3E0FBA3E0FAA3E099
:10093300F9150E150E150EA80EEBF208EAF208E9EA
:10094300F29001F6E0FEA3E0FFF5828E83E0FBA3C5
:10095300E0FAA3E0F9150E150E150EA80EEBF2083A
:10096300EAF208E9F29001F6E0FEA3E0FFAA06F935
:100973007B01150E150E150EA80EEBF208EAF20810
:10098300E9F27BFF7A1F79CE7F00121581E50E24F1
:1009930009F50E7BFF7A1E79977C1F7DEE7F93907E
:1009A3000009EFF0A37414F0120BE99001F2E0FEDA
:1009B300A3E0FF1212EBAE02AF019001F0EEF0A341
:1009C300EFF0121E6522BB010689828A83E0225062
:1009D30002E722BBFE02E32289828A83E49322BCDC
:1009E300000BBE0029EF8DF084FFADF022E4CCF8BC
:1009F30075F008EF2FFFEE33FEEC33FCEE9DEC9821
:100A03004005FCEE9DFE0FD5F0E9E4CEFD22EDF8A6
:100A1300F5F0EE8420D21CFEADF075F008EF2FFF49
:100A2300ED33FD4007985006D5F0F222C398FD0F31
:100A3300D5F0EA22BB0110E58229F582E5833AF578
:100A430083E0F5F0A3E0225009E92582F886F00857
:100A5300E622BBFE0AE92582F8E2F5F008E222E588
:100A6300832AF583E993F5F0A3E99322ECF0A3ED50
:100A7300F0A3EEF0A3EFF022A8828583F0D083D019
:100A830082120A92120A92120A92120A92E473E4EE
:100A930093A3C583C5F0C583C8C582C8F0A3C58326
:100AA300C5F0C583C8C582C822BB0120E58229F5EC
:100AB30082E5833AF583D0F0D0E0F8D0E0F9D0E0D6
:100AC300FAD0E0FBE8C0E0C0F0020B885018E9253B
:100AD30082F8D083D082D0E0F9D0E0FAD0E0FBC036
:100AE30082C083020B7FBBFE18E92582F8D083D036
:100AF30082D0E0F9D0E0FAD0E0FBC082C083020BE1
:100B03009122D083D082F8E4937012740193700D14
:100B1300A3A393F8740193F5828883E47374029317
:100B23006860EFA3A3A380DFEF4E6012EF60010EB6
:100B3300EDBB010B89828A83F0A3DFFCDEFA2289F5
:100B4300F05007F709DFFCA9F022BBFEFCF309DF35
:100B5300FCA9F022EF8DF0A4A8F0CF8CF0A428CE4E
:100B63008DF0A42EFE22C5F0F8A3E028F0C5F0F81E
:100B7300E582158270021583E038F022EBF608EA6D
:100B8300F608E9F622EBF0A3EAF0A3E9F022EBF290
:100B930008EAF208E9F222BB010CE58229F582E5B5
:100BA300833AF583E0225006E92582F8E622BBFE6C
:100BB30006E92582F8E222E58229F582E5833AF502
:100BC30083E49322BB010689828A83F0225002F7D1
:100BD30022BBFE01F322FAE6FB0808E6F925F0F64C
:100BE30018E6CA3AF622900004EBF0A3EAF0A3E970
:100BF300F0A3ECF0A3EDF090000AE0FFC3941050D3
:100C030037E0150EA80EF2900007E0FEA3E0FFAA5E
:100C130006F97BFF150E150E150EA80EEBF208EA6A
:100C2300F208E9F27A2079327F00121581E50E2469
:100C330004F50E121F0780FE90000AE0FF7E007D80
:100C4300A5900009E0F97A007B00120B2B7F037E4D
:100C53000012198F90000BEEF0A3EFF07F157E00CA
:100C630012198F90000DEEF0A3EFF090000BE0FE51
:100C7300A3E0FF4E6009A3E0FEA3E0FF4E700F7EEA
:100C8300207F64900007E0FCA3E0FD121BBE9000F0
:100C93000DE0FEA3E0FF90000BE0FCA3E0FD1214C7
:100CA30044900009E0FF90000DE0FCA3E0FDF58215
:100CB3008C832405F582E5833400F583E0FCA3E00F
:100CC300FDF5828C83EFF090000AE0FF90000DE0C9
:100CD300FCA3E0FDF5828C832405F582E5833400D3
:100CE300F583E0FCA3E0FDF5828C83A3EFF0900095
:100CF30004E0FBA3E0FAA3E0F9AE02FF900009E0F1
:100D0300FEF8A607E004F0900004E0FBA3E0FAA3DA
:100D1300E0F9AE02FFEEFF7E00900009E0FEF8A6C8
:100D23000790000FE4F090000FE0FFC3940D501301
:100D3300900009E004F0E0FFF8760090000FE00473
:100D4300F080E3900009E0FF90000DE0FCA3E0FDDC
:100D5300F5828C832405F582E5833400F583E0FC7A
:100D6300A3E0FDF5828C83A3A3EFF0900004E0FBE6
:100D7300A3E0FAA3E0F990000DE0FEA3E0FFF58203
:100D83008E83EBF0A3EAF0A3E9F0900007E0FEA363
:100D9300E0FF90000DE0FCA3E0FDF5828C83A3A3AC
:100DA300A3EEF0A3EFF090000DE0FEA3E0FFF582C9
:100DB3008E832407F582E5833400F5837401F09074
:100DC30001F2E0FEA3E0FF90000DE0FCA3E0FD12C2
:100DD300118D90000DE0FEA3E0FFAA06F97B01222E
:100DE3009001F0E0FEA3E0FF4E601B9001F0E0A352
:100DF300E0F5828E83240CF582E5833400F583E0ED
:100E0300FF6003020FD49001F0E0FEA3E0FF121B8A
:100E1300629001F0E0FEA3E0FF4E7003020EFF902C
:100E230001F0E0A3E0F5828E832407F582E58334A5
:100E330000F583E0FF120B050E48020E77030EEC5C
:100E43000500000EFF9001F0E0FEA3E0FFF5828EA7
:100E5300832407F582E5833400F5837401F0900160
:100E6300F2E0FEA3E0FF9001F0E0FCA3E0FD12112D
:100E73008D020EFF9001F0E0FEA3E0FFF5828E836A
:100E8300240DF582E5833400F583E0FF704690017D
:100E9300F0E0A3E0FFF5828E83240EF582E5833430
:100EA30000F583E0FF702D9001F0E0A3E0FFF582F1
:100EB3008E832407F582E5833400F5837401F09073
:100EC30001F2E0FEA3E0FF9001F0E0FCA3E0FD12DD
:100ED300118D80289001F4E0FEA3E0FF9001F0E083
:100EE300FCA3E0FD12118D80139001F6E0FEA3E058
:100EF300FF9001F0E0FCA3E0FD12118D9001F2E000
:100F0300FEA3E0FF1212EBAE02AF019001F0EEF090
:100F1300A3EFF09001F0E0FEA3E0FF4E7003020F99
:100F2300D49001F0E0A3E0F5828E832407F582E5F7
:100F3300833400F583E0FFB4014B9001F0E0A3E0BC
:100F4300FFF5828E832407F582E5833400F58374ED
:100F530002F09001F0E0FEA3E0FFF5828E83240C03
:100F6300F582E5833400F583740AF09001F0E0FE26
:100F7300A3E0FFF5828E83240DF582E5833400F52B
:100F83008374FFF0229001F0E0FEA3E0FFF5828E70
:100F9300832407F582E5833400F583E0FF6405606D
:100FA30003020F169001F6E0FEA3E0FF9001F0E0CC
:100FB300FCA3E0FD12118D9001F2E0FEA3E0FF120D
:100FC30012EBAE02AF019001F0EEF0A3EFF0020FCF
:100FD30016229001F0E0FEA3E0FF4E700302109290
:100FE3009001F0E0A3E0F5828E832408F582E58387
:100FF3003400F583E0FCA3E0FDA3E0FEA3E0FF7B68
:10100300017A00790078002BFFEE3AFEED39FDEC12
:1010130038FC9001F0E0FAA3E0FBF5828A83240810
:10102300F582E5833400F583120A6F9001F0E0FE48
:10103300A3E0FFF5828E83240CF582E5833400F56B
:1010430083E0FF60189001F0E0A3E0FFF5828E8358
:10105300240CF582E5833400F583E014F09001F06D
:10106300E0FEA3E0FFF5828E83240DF582E5833451
:1010730000F583E0FF60189001F0E0A3E0FFF58244
:101083008E83240DF582E5833400F583E014F0901C
:1010930001F4E0FEA3E0FFF5828E832406F582E5EA
:1010A300833400F583E0FF900036F0900036E0FFD4
:1010B300D39400500302118C9001F4E0FEA3E0FFEF
:1010C3001212EBAE02AF01900034EEF0A3EFF090FA
:1010D3000034E0FEA3E0FF4E70030211839000345E
:1010E300E0A3E0F5828E83240DF582E5833400F5D9
:1010F30083E0FF6018900034E0A3E0FFF5828E8365
:10110300240DF582E5833400F583E014F090003478
:10111300E0FEA3E0FFF5828E83240DF582E58334A0
:1011230000F583E0FF7046900034E0A3E0FFF58212
:101133008E83240EF582E5833400F583E0FF702D62
:10114300900034E0A3E0FFF5828E832407F582E567
:10115300833400F5837401F09001F2E0FEA3E0FF15
:10116300900034E0FCA3E0FD12118D80139001F494
:10117300E0FEA3E0FF900034E0FCA3E0FD12118D3C
:10118300900036E014F00210AE22900028EEF0A397
:10119300EFF0A3ECF0A3EDF0900028E0FEA3E0FF56
:1011A3004E70030212EAA3E0FEA3E0FF4E700302B7
:1011B30012EA900028E0FEA3E0FFF5828E83A3A34A
:1011C300A3E0FBA3E0FAA3E0F9C003C002C0017BE4
:1011D300007A007900D082D083D0E07006E5827077
:1011E30002E583705D90002AE0FEA3E0FFAA06F902
:1011F3007B01900028E0FEA3E0FFF5828E83EBF0F5
:10120300A3EAF0A3E9F090002AE0FEA3E0FFAA0618
:10121300F9900028E0FEA3E0FFF5828E83A3A3A349
:10122300EBF0A3EAF0A3E9F0900028E0FEA3E0FFCF
:10123300F5828E832406F582E5833400F583E0048A
:10124300F02290002AE0FEA3E0FFAA06F97B01C08A
:1012530003C002C001900028E0FEA3E0FFF5828EE8
:1012630083A3A3A3E0FBA3E0FAA3E0F975821275BD
:101273008300120AAC900028E0FEA3E0FFF5828E03
:1012830083A3A3A3E0FBA3E0FAA3E0F990002AE081
:10129300FEA3E0FFF5828E83240FF582E5833400FD
:1012A300F583EBF0A3EAF0A3E9F090002AE0FEA3B4
:1012B300E0FFAA06F97B01900028E0FEA3E0FFF51A
:1012C300828E83A3A3A3EBF0A3EAF0A3E9F090003B
:1012D30028E0FEA3E0FFF5828E832406F582E583F2
:1012E3003400F583E004F02290002CEEF0A3EFF03D
:1012F30090002CE0FEA3E0FF4E602E90002CE0A3B4
:10130300E0F5828E83E0FBA3E0FAA3E0F9C003C01B
:1013130002C0017B007A007900D082D083D0E070D4
:1013230006E5827002E58370077B007A007900226C
:1013330090002CE0FEA3E0FFF5828E83E0FBA3E0A8
:10134300FAA3E0F9AE02FF90002EEEF0A3EFF090C7
:10135300002EE0FEA3E0FFF5828E832412F582E5E2
:10136300833400F583E0FBA3E0FAA3E0F990002CBB
:10137300E0FEA3E0FFF5828E83EBF0A3EAF0A3E99E
:10138300F090002CE0FEA3E0FFF5828E832406F5A7
:1013930082E5833400F583E014F090002CE0FEA393
:1013A300E0FFF5828E832406F582E5833400F5831E
:1013B300E0FF7019FBFAF990002CE0A3E0FFF5823F
:1013C3008E83A3A3A3EBF0A3F0A3F080297B007A81
:1013D300007900C003C002C00190002CE0FEA3E02E
:1013E300FFF5828E83E0FBA3E0FAA3E0F975820F99
:1013F300758300120AAC7B007A00790090002EE01E
:10140300FEA3E0FFF5828E832412F582E583340088
:10141300F583EBF0A3F0A3F090002EE0FEA3E0FF32
:10142300F5828E83240FF582E5833400F583EBF098
:10143300A3F0A3F090002EE0FEA3E0FFAA06F90BB1
:1014430022900024EEF0A3EFF0A3ECF0A3EDF090D4
:101453000026E0FEA3E0FFF5828E83E4F0900026F1
:10146300E0FEA3E0FFF5828E83A3E4F0900026E084
:10147300FEA3E0FFF5828E83A3A3E4F0FBFAF990C9
:101483000024E0FEA3E0FFF5828E83EBF0A3F0A33C
:10149300F0900024E0FEA3E0FFF5828E83A3A3A3D4
:1014A300E4F0A3F0900026E0FEA3E0FF900024E028
:1014B300FCA3E0FDF5828C832405F582E5833400EB
:1014C300F583EEF0A3EFF0900024E0FEA3E0FFF538
:1014D300828E832407F582E5833400F5837401F05B
:1014E300900024E0FEA3E0FFF5828E832408F582BA
:1014F300E5833400F583120A7B000000009000248A
:10150300E0FEA3E0FFF5828E83240CF582E58334AD
:1015130000F583E4F0900024E0FEA3E0FFF5828E63
:1015230083240DF582E5833400F583E4F0900024F1
:10153300E0FEA3E0FFF5828E83240EF582E583347B
:1015430000F583E4F0900024E0FEA3E0FFF5828E33
:1015530083240FF582E5833400F583EBF0A3F0A336
:10156300F0900024E0FEA3E0FFF5828E832412F5C1
:1015730082E5833400F583EBF0A3F0A3F022150E8C
:10158300150E150EA80EEBF208EAF208E9F2150E95
:10159300A80EEFF2E50E24F9F50E2012FDD2127D0E
:1015A300017C007FA07E00121D38A80EEEF208EF2A
:1015B300F2A80EE2FE08E2FF4E70127BFF7A217959
:1015C30022E50E2407F8E2FF121A2B80FE7BFEE5CC
:1015D3000E2408F97A002403F9EA3400FAA80E0865
:1015E30008EBF208EAF208E9F2A80EE2FE08E2FFCD
:1015F300AA06F97B01C003C002C001E50E2408F866
:10160300E2FB08E2FA08E2F98B3D8A3EF53FA80EB9
:101613000808E2FB08E2FA08E2F98B408A41F54246
:10162300D001D002D003121D0AE50E2405F8EEF214
:1016330008EFF27B007A007900A80E0808EBF208A5
:10164300F208F2E50E2405F8E2FE08E2FFC3EE64B9
:101653008094804014E50E2405F8E2FE08E2FFC3FF
:1016630094A0EE6480948040127BFF7A21794BE54D
:101673000E2407F8E2FF121A2B80FEA80EE2FE08E2
:10168300E2FFAA06F97B01E50E2407F8E2FF121A2E
:101693002B7D0AE50E2407F8E2FF121E03A80EE2D3
:1016A300FE08E2FF1217D0C212E50E240BF50E223C
:1016B300150EA80EEBF2150EA80EEDF2150EA80EE0
:1016C300EFF2150E9001F0E0FEA3E0FF4E7003026F
:1016D30017C99001F0E0A3E0F5828E832407F58219
:1016E300E5833400F5837403F0A80E08E2FF30E0CD
:1016F300559001F0E0FEA3E0FFF5828E83240DF503
:1017030082E5833400F583E0FFC374FF9FFFA80ED7
:10171300F20808E2FFA80EE2FEC39F40047F0080A8
:101723000BA80EE2FF0808E2FEC39FFF9001F0E062
:10173300FCA3E0FDF5828C83240DF582E583340060
:10174300F583EFF08026A80E08E2FF30E11EA80E15
:101753000808E2FF9001F0E0FCA3E0FDF5828C8332
:10176300240DF582E5833400F583EFF0A80E08E23B
:10177300FF30E41FE50E2403F8E2FF9001F0E0FCE4
:10178300A3E0FDF5828C83240EF582E5833400F516
:1017930083EFF09001F0E0FEA3E0FFF5828E832457
:1017A3000CF582E5833400F583E4F09001F0E0FE6C
:1017B300A3E0FFF5828E832407F582E5833400F5E9
:1017C30083E0FFB402E5E50E2404F50E22EF4E702C
:1017D300030218D3900012E07002A3E07003021812
:1017E300D3CDEFCDCCEECCED24FCFDEC34FFFC757A
:1017F3003D00753E10853E82853D83E0FAA3E08A75
:101803003FF540453F6011D3E5409FE53F9E5008BB
:10181300853F3D85403E80DDE540453F604A8D8202
:101823008C83A3A3E0FAA3E02FFFEA3EFEEF65401B
:101833007003EE653F7031854082853F83A3A3E04B
:10184300FEA3E02404FFE43E8D828C83A3A38FF0E8
:10185300120B69854082853F83E0FFA3E08D828C74
:1018630083CFF0A3EFF0800B8D828C83E53FF0A351
:10187300E540F0853E82853D83A3A3E0FEA3E025FA
:101883003EFFEE353DFEEF2404FFE43EFEEF6D70B8
:1018930002EE6C70308D828C83A3A3E0FEA3E02460
:1018A30004FFE43E853E82853D83A3A38FF0120BA4
:1018B300698D828C83E0FFA3E0853E82853D83CFE3
:1018C300F0A3EFF022853E82853D83ECF0A3EDF09B
:1018D30022C0E0C0F0C083C082C0D0C000C001C03D
:1018E30002C003C004C005C006C00775D000900144
:1018F300F0E0FFA3E04F6023AF819001F0E0FCA391
:10190300E0FDED2405FDEC3400FC8D828C83E0FCCE
:10191300A3E0FD8D828C83A3A3EFF0900040E0F55C
:1019230081E50B2401F50BE50A3400F50AE50934DA
:1019330000F509E5083400F508120FD5120DE39000
:1019430001F0E0FFA3E04F6028900040E581F090B4
:1019530001F0E0FEA3E0FFEF2405FFEE3400FE8F6D
:10196300828E83E0FEA3E0FF8F828E83A3A3E0F544
:1019730081D007D006D005D004D003D002D001D047
:1019830000D0D0D082D083D0F0D0E0328E418F42CD
:101993007E007F108F828E83E0FCA3E0FD4C7003FA
:1019A300FEFF228D828C83A3A3E0FAA3E0FBC39501
:1019B30042EA95415008CEECCECFEDCF80D6C3EBB3
:1019C3009542F544EA9541F543C3E5449410E54354
:1019D300940050198D828C83E0FBA3E08F828E8369
:1019E300CBF0A3EBF0ED2404FFE43CFE2274FC25D2
:1019F30044F54474FF3543F5438D828C83A3A3F0F0
:101A0300A3E544F0ED2404FFE43CFEEF2544FFEEA0
:101A13003543FE8F82F583A3A3E541F0A3E542F0AE
:101A2300EF2404FFE43EFE22150E150E150EA80E3C
:101A3300EBF208EAF208E9F2150EA80EEFF2E2FF64
:101A4300702CA80E08E2FB08E2FA08E2F91209C9B1
:101A5300FF6047A80E08E2FB0808E2F92401F21828
:101A6300E2FA3400F21209C9FF121ECC80D4A80E88
:101A730008E2FB08E2FA08E2F91209C9FF601BA8B1
:101A83000E08E2FB0808E2F92401F218E2FA340036
:101A9300F21209C9FF121EDB80D4E50E2404F50EF1
:101AA3002290001FEBF0A3EAF0A3E9F0A3ECF0A36C
:101AB300EDF0C2A9C28C90001FE0FBA3E0FAA3E003
:101AC300F9150E150E150EA80EEBF208EAF208E949
:101AD300F2A3E0FEA3E0FFAA06F97BFF150E150EA5
:101AE300150EA80EEBF208EAF208E9F27A207972F1
:101AF3007F00121581E50E2406F50E121F0780FEE6
:101B0300229001F0E0FEA3E0FF4E700C7BFF7A1FF2
:101B130079FAFF12158180FE900040E581F0900173
:101B2300F0E0FEA3E0FFF5828E832405F582E583D2
:101B33003400F583E0FEA3E0FFF5828E83A3A3E0E8
:101B4300FF24F3FFF581150EA80EE581F27BFF7AE2
:101B53002079157F00121581050ED2A9D28C22900F
:101B6300003CEEF0A3EFF090003CE0FEA3E0FF4E5C
:101B7300604890003CE0A3E0F5828E832405F58263
:101B8300E5833400F583E0FEA3E0FF121C19EF6048
:101B93002990003CE0FEA3E0FFF5828E83E0FBA3E7
:101BA300E0FAA3E0F990003CE0A3E0F5828E83A382
:101BB300A3A3E0FCA3E0FD121AA422900030EEF0F0
:101BC300A3EFF0A3ECF0A3EDF0900032E0FEA3E06E
:101BD300FFAA06F97BFF150E150E150EA80EEBF2E4
:101BE30008EAF208E9F2900030E0FEA3E0FFAA065B
:101BF300F9150E150E150EA80EEBF208EAF208E918
:101C0300F27A1F792E7F00121581E50E2406F50E58
:101C1300121F0780FE2290003AEEF0A3EFF090002F
:101C23003AE0FEA3E0FF4E7002FF2290003AE0FE8E
:101C3300A3E0FFF5828E83A3E0FF90003AE0FCA3CC
:101C4300E0FDF5828C83E0FE2FFF14FF7813F6E6A8
:101C5300FFF8E6FF64A560037F01227F0022121EC6
:101C6300BD7BFF7A2079AD7F001215811200037BC3
:101C7300FF7A2079CB7F001215811206E77BFF7A6A
:101C83002079E57F00121581121CD97BFF7A217917
:101C9300027F00121581121B0422EF4E7008FE7F93
:101CA30001ED1D70011C900010EEF0A3EFF0A3EC0A
:101CB300F0A3EDF0900010E0FEA3E0FFF5828E8329
:101CC300E4F0A3F0ED24FCFDEC34FF8F828E83A3BC
:101CD300A3F0A3EDF0227BFF7A1E79F97C207DA18E
:101CE3007F57900009EFF0A3741EF0120BE97BFFFE
:101CF3007A1E79807C207DA77F75900009EFF0A381
:101D0300741EF0120BE922853D46853E47853F4808
:101D1300EBC540FBEAC541FAE9C542F97F097849B9
:101D23001209C9F60809E970010ADFF4AB40AA41B8
:101D3300A9420200A28E3D8F3E120B578E3D8F3E6D
:101D430012198F8E3F8F40EF4E7003FEFF22AE3D80
:101D5300AF3E7D00AA3FA9407B01120B2BAE3FAFE4
:101D63004022C0E0C0D075D018E59A30E010539AF5
:101D7300FE7801E59BF2E59A5404FF7803F2E59AB5
:101D830030E105539AFDC213D0D0D0E032150E15C1
:101D93000EA80EEEF208EFF2A80E08E2FF24FFF2FF
:101DA30018E2FE34FFF2EF4E600512000E80E905E3
:101DB3000E050E22EFB40A07740D121DC2740A3009
:101DC3009811A899B8130CC2983098FDA899C29895
:101DD300B811F63099FDC299F59922C0E0C0D075CB
:101DE300D01830980FC2987800E599F2A29AE4339C
:101DF300FF7802F2309904C299C213D0D0D0E032F6
:101E0300150EA80EEDF2150EA80EEFF2E2FF700804
:101E130008E2FF121ECC8008A80E08E2FF121EDBA8
:101E2300050E050E22150E150EA80EEEF208EFF2A2
:101E3300A80E08E2FF24FFF218E2FE34FFF2EF4E91
:101E430070EE050E050E227E027F007D007B017A77
:101E5300027900120B2B7E027F007D007C02121C94
:101E63009D22750B00750A00750900750800438EE5
:101E7300805389F0758A20758CD1D2AF22D2917E9E
:101E8300007F02121D90C2917B007D057F01121617
:101E9300B380EA229001F6E0FEA3E0FF1203A27BE7
:101EA300007D007F021216B380EA22787FE4F6D821
:101EB300FD750E007581A6021C61438E80D2AF12A0
:101EC3001EEA121E4A12002622150EA80EEFF2D2A7
:101ED30013E2FFF599050E22150EA80EEFF2D213A9
:101EE300E2FFF59B050E227E007F00121E287E0076
:101EF3007F00121D9022B2907B007D027F0212169A
:101F0300B380F322C2A9225461736B2064656C65AC
:101F130074652E207461736B5F703D25702074614E
:101F2300736B5F6E616D653D2573004E6F74206545
:101F33006E6F756768206D656D6F72792073706160
:101F430063652E2066756E635F6E616D653D2573F7
:101F5300207661723D25700072656164795F7461FA
:101F6300736B5F6C6973740072656164795F74612C
:101F7300736B5F6C6973743D25702C20743D257001
:101F83002C20653D257000626C6F636B65645F7424
:101F930061736B5F6C69737400626C6F636B656410
:101FA3005F7461736B5F6C6973743D25702C20746F
:101FB3003D25702C20653D25700068696464656E5D
:101FC3005F7461736B5F6C697374006869646465E3
:101FD3006E5F7461736B5F6C6973743D25702C2045
:101FE300743D25702C20653D2570004F535F496477
:101FF3006C655461736B003D3D3D3D204F535F5312
:1020030074617274206661696C656421203D3D3D95
:102013003D003D3D3D3D204F535F5374617274203D
:102023003D3D3D3D202053503D30782562580054BE
:1020330061736B20737461636B206D696E696D7579
:102043006D2031362E207461736B5F6E616D653D5B
:10205300257320737461636B5F6C656E3D256275D8
:10206300004F535F4372656174655461736B005332
:102073007461636B206F766572666C6F772E207464
:1020830061736B5F6E616D653D2573207461736B66
:102093005F703D2570004F535F496E697400746132
:1020A300736B31007461736B32003D3D3D3D2042E3
:1020B30053505F496E697420636F6D706C6574650E
:1020C3006421203D3D3D3D003D3D3D3D2073657414
:1020D300757020636F6D706C65746521203D3D3DA7
:1020E3003D003D3D3D3D204F535F496E6974206384
:1020F3006F6D706C6574656421203D3D3D3D003D11
:102103003D3D3D206372656174655461736B20636B
:102113006F6D706C6574656421203D3D3D3D004EDF
:102123006F7420656E6F756768206D656D6F72796A
:1021330020737061636520666F7220535452425559
:10214300465F4C454E2E0A005354524255465F4C4F
:0F215300454E20746F6F20736D616C6C2E0A0007
:00000001FF
