:03000000021E5A83
:10000B00021871D2917E007F02121D2AC2917D05CA
:10001B007F0012165A80EC22021D787E027F007D33
:10002B00007B017A027900120AC07E027F007D00FC
:06003B007C02121C0522EC
:10004300021CFE900018EEF0A3EFF0900018E0FE03
:10005300A3E0FFEF4E70030203AE900018E0FEA38F
:10006300E0FF8F828E83E0FBA3E0FAA3E0F9AE0208
:10007300AF0190001AEEF0A3EFF090001AE0FEA398
:10008300E0FFEF4E70030203AE90001AE0FEA3E020
:10009300FF8F828E83E5822407F582E5833400F5A2
:1000A30083E0FF7E00EF64054E600302037F900050
:1000B3001AE0FEA3E0FFAA06A9077B0190001CEB50
:1000C300F0A3EAF0A3E9F0900018E0FEA3E0FF8FAD
:1000D300828E83E0FBA3E0FAA3E0F9C003C002C071
:1000E3000190001AE0FEA3E0FFAA06A9077B01D056
:1000F30082D083D0E06B7008E965827003EA658380
:10010300600302019A90001AE0FEA3E0FF8F828E43
:1001130083E5822411F582E5833400F583E0FBA3B4
:10012300E0FAA3E0F9900018E0FEA3E0FF8F828ECF
:1001330083EBF0A3EAF0A3E9F0900018E0FEA3E05C
:10014300FF8F828E83E5822406F582E5833400F5F2
:1001530083E014F0900018E0FEA3E0FF8F828E830B
:10016300E5822406F582E5833400F583E0FF7E0013
:10017300EF4E60030202CB7B007A007900900018F7
:10018300E0FEA3E0FF8F828E83A3A3A3EBF0A3EA99
:10019300F0A3E9F00202CB900018E0FEA3E0FF8F8A
:1001A300828E83A3A3A3E0FBA3E0FAA3E0F9C00339
:1001B300C002C00190001AE0FEA3E0FFAA06A9074F
:1001C3007B01D082D083D0E06B7008E96582700335
:1001D300EA6583705590001AE0FEA3E0FF8F828EDC
:1001E30083E582240EF582E5833400F583E0FBA3E7
:1001F300E0FAA3E0F9900018E0FEA3E0FF8F828EFF
:1002030083A3A3A3EBF0A3EAF0A3E9F0900018E023
:10021300FEA3E0FF8F828E83E5822406F582E583C9
:100223003400F583E014F00202CB90001AE0FEA341
:10023300E0FF8F828E83E5822411F582E58334000B
:10024300F583E0FBA3E0FAA3E0F9C003C002C00119
:1002530090001AE0FEA3E0FF8F828E83E582240ED6
:10026300F582E5833400F583E0FBA3E0FAA3E0F92C
:10027300758211758300120A4190001AE0FEA3E013
:10028300FF8F828E83E582240EF582E5833400F5A9
:1002930083E0FBA3E0FAA3E0F9C003C002C001902E
:1002A300001AE0FEA3E0FF8F828E83E5822411F51E
:1002B30082E5833400F583E0FBA3E0FAA3E0F9755C
:1002C300820E758300120A4190001AE0FEA3E0FF3C
:1002D3008F828E83E5822411F582E5833400F583D2
:1002E300E0FBA3E0FAA3E0F9AE02AF0190001AEE3F
:1002F300F0A3EFF090001CE0FBA3E0FAA3E0F97594
:1003030082037583001209CCFFAEF0AA06A9077B0E
:10031300FF150E150E150EA80EEBF208EAF208E90A
:10032300F290001CE0FBA3E0FAA3E0F9150E150E12
:10033300150EA80EEBF208EAF208E9F27BFF7A1E2B
:1003430079937F00121528E50E2406F50E90001C04
:10035300E0FBA3E0FAA3E0F97582057583001209B7
:10036300CCFFAEF012176D90001CE0FBA3E0FAA3E4
:10037300E0F9AE02AF0112176D02007D90001AE0A2
:10038300FEA3E0FF8F828E83E5822411F582E5834D
:100393003400F583E0FBA3E0FAA3E0F9AE02AF017A
:1003A30090001AEEF0A3EFF002007D22E5522446FE
:1003B300F8E605522278433010027846E475F001DE
:1003C300120B6E02095E2009EB7F2ED2098018EF13
:1003D300540F2490D43440D4FF300D0BEF24BFB41A
:1003E3001A0050032461FFE553600215530556E5D7
:1003F300567002055530100D7843E475F001120B69
:100403006EEF020B5C021D517403D2108003E4C231
:1004130010F5528B438A448945E4F553F555F55657
:10042300E55360077F201203EA80F57554FFC20A83
:10043300C209C20BC20CC20EC20FC2111203B8FF13
:10044300700D3010057F001203FBAF56AE5522B47A
:10045300255FC2D5C20D1203B8FF24D0B40A0050E1
:100463001A75F00A785330D50508B6FF0106C6A4FD
:1004730026F620D5047002D20C80D924CFB41A00FA
:10048300EF5004C2E5D20D0205FBD20A80C6D209A1
:1004930080C0D20B80BCD2D580BAD20E80B47F206C
:1004A3001203EA200B077401B5530040F11203AFA6
:1004B300FF1203EA020423D211D20F80951203AF75
:1004C300FB1203AFFA1203AFF94A4B700679CC7AE9
:1004D300067BFF200B2EE553602A7E008E827583F8
:1004E30000120B2F60060EEE655470F0C2D5EBC000
:1004F300E0EAC0E0E9C0E0EE120642D0E0F9D0E065
:10050300FAD0E0FB12095EFF60AAEBC0E0EAC0E0AC
:10051300E9C0E01203EAD0E02401F9D0E03400FAA4
:10052300D0E0FBE5540460DCD554D980877BFF7AA7
:1005330006793ED20B809C791080027908C20FC2E3
:10054300118008D2D5790A8004790AC2D5E554040A
:100553007002F554E4FAFDFEFF1203AFFC7B0820A2
:100563000A131203AFFD7B1030090A1203AFFE1208
:1005730003AFFF7B20EC3382D592D55013C3E43015
:1005830009069FFFE49EFEE4200A039DFDE49CFC14
:10059300E4CBF8C20AEC700CCFCECDCCE824F8F84B
:1005A30070F38017C3EF33FFEE33FEED33FDEC330F
:1005B300FCEB33FB994002FB0FD8E9EB300A05F85B
:1005C300D0E0C448B20AC0E00AEC4D4E4F78207B1D
:1005D3000070C2EAB5540040BCC0E0120644D0F03B
:1005E300D0E0200A04C4C0E0C4B20AC0F01203D3AE
:1005F300D0F0D5F0EB020423120A9A04C053053A53
:100603005804914C048D42053E4F05464405464926
:1006130004A643054C5505304605304505304706CD
:10062300EC5004952D04992E04BC2B049D2304BA8D
:100633002006D52A045548000004B43F3F3F007903
:100643000AA2D5200C14300E09B910020404B9080B
:100653000104A2D5200F02500104200B68920BB5B0
:1006630053005034C0E07F20300C197F30A20B724E
:100673000F720E500F12069BC20BC20FC20EC21195
:100683007F30800F300E03E9C0E01203EA300E031F
:10069300D0E0F9D0E0B553CC300E177F30B9100C51
:1006A3001203EA7F58300D077F788003B9080312DD
:1006B30003EA300B057F2D0203EA7F202011F87F28
:1006C3002B200FF322920B80CF286E756C6C2900C0
:1006D300D20A1203AF300AF8C20A785330D50108A0
:1006E300F60204552D504349581203AF2403B405B1
:1006F300004001E49006E7931203DB743A1203DB34
:10070300D20C75530402053A900004EBF0A3EAF00F
:10071300A3E9F0900007ECF0A3EDF090000AE0FFEE
:100723007E00C3EF9410EE64809480503C90000AE6
:10073300E0FF150EA80EEFF2900007E0FEA3E0FF26
:10074300AA06A9077BFF150E150E150EA80EEBF2D0
:1007530008EAF208E9F27BFF7A1F79177F00121586
:1007630028E50E2404F50E80FE90000AE0FF7E00CB
:100773007DA5900009E0F97A007B00120AC07F038F
:100783007E0012192C90000BEEF0A3EFF07F147E85
:100793000012192C90000DEEF0A3EFF090000BE087
:1007A300FEA3E0FFEF4E600C90000DE0FEA3E0FF20
:1007B300EF4E700F7E1F7F49900007E0FCA3E0FD22
:1007C300121B1090000DE0FEA3E0FF90000BE0FC75
:1007D300A3E0FD1213DE900009E0FF90000DE0FCA2
:1007E300A3E0FD8D828C83E5822405F582E58334C5
:1007F30000F583E0FCA3E0FD8D828C83EFF0900095
:100803000AE0FF90000DE0FCA3E0FD8D828C83E500
:10081300822405F582E5833400F583E0FCA3E0FD43
:100823008D828C83A3EFF0900004E0FBA3E0FAA396
:10083300E0F9AE02AF01900009E0FEA806A607901A
:100843000009E004F0900004E0FBA3E0FAA3E0F960
:10085300AE02AF01EEFF7E00900009E0FEA806A6FF
:1008630007900004E0FBA3E0FAA3E0F9C003C00291
:10087300C0017BFF7A1E7921D082D083D0E06B70D8
:1008830008E965827003EA6583602E90000FE4F047
:1008930090000FE0FF7E00C3EF940DEE6480948020
:1008A3005017900009E004F0900009E0FFA80776D4
:1008B3000090000FE004F080D7900009E0FF900063
:1008C3000DE0FCA3E0FD8D828C83E5822405F58297
:1008D300E5833400F583E0FCA3E0FD8D828C83A3E4
:1008E300A3EFF0900004E0FBA3E0FAA3E0F990008B
:1008F3000DE0FEA3E0FF8F828E83EBF0A3EAF0A36B
:10090300E9F0900007E0FEA3E0FF90000DE0FCA3F8
:10091300E0FD8D828C83A3A3A3EEF0A3EFF0900000
:100923000DE0FEA3E0FF8F828E83E5822407F5822C
:10093300E5833400F5837401F09001F2E0FEA3E057
:10094300FF90000DE0FCA3E0FD12126B90000DE0A0
:10095300FEA3E0FFAA06A9077B0122BB0106898249
:100963008A83E0225002E722BBFE02E32289828AC5
:1009730083E49322BC000BBE0029EF8DF084FFAD0E
:10098300F022E4CCF875F008EF2FFFEE33FEEC33E2
:10099300FCEE9DEC984005FCEE9DFE0FD5F0E9E4DE
:1009A300CEFD22EDF8F5F0EE8420D21CFEADF075FD
:1009B300F008EF2FFFED33FD4007985006D5F0F216
:1009C30022C398FD0FD5F0EA22BB0110E58229F579
:1009D30082E5833AF583E0F5F0A3E0225009E925A7
:1009E30082F886F008E622BBFE0AE92582F8E2F5E2
:1009F300F008E222E5832AF583E993F5F0A3E9936E
:100A030022ECF0A3EDF0A3EEF0A3EFF022A8828591
:100A130083F0D083D082120A27120A27120A2712E0
:100A23000A27E473E493A3C583C5F0C583C8C582CD
:100A3300C8F0A3C583C5F0C583C8C582C822BB015E
:100A430020E58229F582E5833AF583D0F0D0E0F8FA
:100A5300D0E0F9D0E0FAD0E0FBE8C0E0C0F0020B50
:100A63001D5018E92582F8D083D082D0E0F9D0E078
:100A7300FAD0E0FBC082C083020B14BBFE18E92549
:100A830082F8D083D082D0E0F9D0E0FAD0E0FBC086
:100A930082C083020B2622D083D082F8E4937012A3
:100AA300740193700DA3A393F8740193F582888363
:100AB300E4737402936860EFA3A3A380DFEF4E6037
:100AC30012EF60010EEDBB010B89828A83F0A3DF75
:100AD300FCDEFA2289F05007F709DFFCA9F022BBFC
:100AE300FEFCF309DFFCA9F022EF8DF0A4A8F0CF00
:100AF3008CF0A428CE8DF0A42EFE22C5F0F8A3E03E
:100B030028F0C5F0F8E582158270021583E038F00D
:100B130022EBF608EAF608E9F622EBF0A3EAF0A3E3
:100B2300E9F022EBF208EAF208E9F222BB010CE554
:100B33008229F582E5833AF583E0225006E925828E
:100B4300F8E622BBFE06E92582F8E222E58229F5D2
:100B530082E5833AF583E49322BB010689828A8383
:100B6300F0225002F722BBFE01F322FAE6FB08084B
:100B7300E6F925F0F618E6CA3AF6229001F0E0FE0F
:100B8300A3E0FFEF4E60239001F0E0FEA3E0FF8FB0
:100B9300828E83E582240CF582E5833400F583E0BD
:100BA300FF7E00EF4E6003020D869001F0E0FEA38E
:100BB300E0FF121AAD9001F0E0FEA3E0FFEF4E70EC
:100BC30003020C9A9001F0E0FEA3E0FF8F828E8374
:100BD300E5822407F582E5833400F583E0FFEF1215
:100BE3000A9A0BF2020C22030C870500000C9A9060
:100BF30001F0E0FEA3E0FF8F828E83E5822407F5F8
:100C030082E5833400F5837401F09001F2E0FEA3E2
:100C1300E0FF9001F0E0FCA3E0FD12126B807890FE
:100C230001F0E0FEA3E0FF8F828E83E582240DF5C1
:100C330082E5833400F583E0FF7E00EF4E70309051
:100C430001F0E0FEA3E0FF8F828E83E5822407F5A7
:100C530082E5833400F5837401F09001F2E0FEA392
:100C6300E0FF9001F0E0FCA3E0FD12126B802890FE
:100C730001F4E0FEA3E0FF9001F0E0FCA3E0FD122D
:100C8300126B80139001F6E0FEA3E0FF9001F0E009
:100C9300FCA3E0FD12126B9001F2E0FEA3E0FF1251
:100CA30010EBAE02AF019001F0EEF0A3EFF0900174
:100CB300F0E0FEA3E0FFEF4E7003020D869001F01B
:100CC300E0FEA3E0FF8F828E83E5822407F582E5B1
:100CD300833400F583E0FF7E00EF64014E70529091
:100CE30001F0E0FEA3E0FF8F828E83E5822407F507
:100CF30082E5833400F5837402F09001F0E0FEA3F3
:100D0300E0FF8F828E83E582240CF582E583340035
:100D1300F583740AF09001F0E0FEA3E0FF8F828E6A
:100D230083E582240DF582E5833400F58374FFF0B7
:100D3300229001F0E0FEA3E0FF8F828E83E5822400
:100D430007F582E5833400F583E0FF7E00EF640559
:100D53004E6003020CB19001F6E0FEA3E0FF9001A8
:100D6300F0E0FCA3E0FD12126B9001F2E0FEA3E0C1
:100D7300FF1210EBAE02AF019001F0EEF0A3EFF023
:100D8300020CB1229001F0E0FEA3E0FFEF4E7003EE
:100D9300020E5E9001F0E0FEA3E0FF8F828E83E5FA
:100DA300822408F582E5833400F583E0FCA3E0FDAB
:100DB300A3E0FEA3E0FF7B017A0079007800EF2B2C
:100DC300FFEE3AFEED39FDEC38FC9001F0E0FAA3BA
:100DD300E0FB8B828A83E5822408F582E583340075
:100DE300F583120A049001F0E0FEA3E0FF8F828EE8
:100DF30083E582240CF582E5833400F583E0FF7EEE
:100E030000EF4E601B9001F0E0FEA3E0FF8F828EA7
:100E130083E582240CF582E5833400F583E014F046
:100E23009001F0E0FEA3E0FF8F828E83E582240D24
:100E3300F582E5833400F583E0FF7E00EF4E601B0F
:100E43009001F0E0FEA3E0FF8F828E83E582240D04
:100E5300F582E5833400F583E014F09001F4E0FEBD
:100E6300A3E0FF8F828E83E5822406F582E5833437
:100E730000F583E0FF900036EFF0900036E0FF7E50
:100E830000D3EF9400EE648094805003020F5F90D0
:100E930001F4E0FEA3E0FF1210EBAE02AF019000FD
:100EA30034EEF0A3EFF0900034E0FEA3E0FFEF4E4A
:100EB3007003020F56900034E0FEA3E0FF8F828E92
:100EC30083E582240DF582E5833400F583E0FF7E1C
:100ED30000EF4E601B900034E0FEA3E0FF8F828E94
:100EE30083E582240DF582E5833400F583E014F075
:100EF300900034E0FEA3E0FF8F828E83E582240D11
:100F0300F582E5833400F583E0FF7E00EF4E703019
:100F1300900034E0FEA3E0FF8F828E83E5822407F6
:100F2300F582E5833400F5837401F09001F2E0FE6D
:100F3300A3E0FF900034E0FCA3E0FD12126B8013EA
:100F43009001F4E0FEA3E0FF900034E0FCA3E0FD99
:100F530012126B900036E014F0020E7D229001F025
:100F6300E4F0A3E4F07F077E0012192C9001F2EE67
:100F7300F0A3EFF09001F2E0FEA3E0FFEF4E700B61
:100F83007E1F7F8A7C1E7DE4121B107B007A007912
:100F9300009001F2E0FEA3E0FF8F828E83EBF0A3CB
:100FA300EAF0A3E9F07B007A0079009001F2E0FE19
:100FB300A3E0FF8F828E83A3A3A3EBF0A3EAF0A3A6
:100FC300E9F09001F2E0FEA3E0FF8F828E83E582D9
:100FD3002406F582E5833400F583E4F07F077E0081
:100FE30012192C9001F4EEF0A3EFF09001F4E0FE5F
:100FF300A3E0FFEF4E700B7E1F7F8A7C1E7DF412F1
:101003001B107B007A0079009001F4E0FEA3E0FF5F
:101013008F828E83EBF0A3EAF0A3E9F07B007A00E2
:1010230079009001F4E0FEA3E0FF8F828E83A3A3F7
:10103300A3EBF0A3EAF0A3E9F09001F4E0FEA3E050
:10104300FF8F828E83E5822406F582E5833400F5E3
:1010530083E4F07F077E0012192C9001F6EEF0A3D3
:10106300EFF09001F6E0FEA3E0FFEF4E700B7E1F62
:101073007F8A7C1F7D06121B107B007A007900900B
:1010830001F6E0FEA3E0FF8F828E83EBF0A3EAF08C
:10109300A3E9F07B007A0079009001F6E0FEA3E07B
:1010A300FF8F828E83A3A3A3EBF0A3EAF0A3E9F05F
:1010B3009001F6E0FEA3E0FF8F828E83E582240693
:1010C300F582E5833400F583E4F07BFF7A1E792112
:1010D3007C1F7D7E7F7F900009EFF090000A7414DF
:1010E300F012070B121DC02290002CEEF0A3EFF0BC
:1010F30090002CE0FEA3E0FFEF4E603390002CE065
:10110300FEA3E0FF8F828E83E0FBA3E0FAA3E0F966
:10111300C003C002C0017B007A007900D082D08373
:10112300D0E06B7008E965827003EA658370077B22
:10113300007A0079002290002CE0FEA3E0FF8F826A
:101143008E83E0FBA3E0FAA3E0F9AE02AF019000C7
:101153002EEEF0A3EFF090002EE0FEA3E0FF8F82CF
:101163008E83E5822411F582E5833400F583E0FB69
:10117300A3E0FAA3E0F990002CE0FEA3E0FF8F8246
:101183008E83EBF0A3EAF0A3E9F090002CE0FEA33A
:10119300E0FF8F828E83E5822406F582E5833400A7
:1011A300F583E014F090002CE0FEA3E0FF8F828E25
:1011B30083E5822406F582E5833400F583E0FF7E30
:1011C30000EF4E701F7B007A00790090002CE0FE48
:1011D300A3E0FF8F828E83A3A3A3EBF0A3EAF0A384
:1011E300E9F080297B007A007900C003C002C001C6
:1011F30090002CE0FEA3E0FF8F828E83E0FBA3E050
:10120300FAA3E0F975820E758300120A417B007A16
:1012130000790090002EE0FEA3E0FF8F828E83E52D
:10122300822411F582E5833400F583EBF0A3EAF021
:10123300A3E9F07B007A00790090002EE0FEA3E0A2
:10124300FF8F828E83E582240EF582E5833400F5D9
:1012530083EBF0A3EAF0A3E9F090002EE0FEA3E015
:10126300FFAA06A9077B0122900028EEF0A3EFF066
:1012730090002AECF0A3EDF0900028E0FEA3E0FF3D
:10128300EF4E70030213DD90002AE0FEA3E0FFEFB0
:101293004E70030213DD900028E0FEA3E0FF8F826F
:1012A3008E83A3A3A3E0FBA3E0FAA3E0F9C003C0EA
:1012B30002C0017B007A007900D082D083D0E06B3A
:1012C3007008E965827003EA6583706390002AE021
:1012D300FEA3E0FFAA06A9077B01900028E0FEA376
:1012E300E0FF8F828E83EBF0A3EAF0A3E9F0900096
:1012F3002AE0FEA3E0FFAA06A9077B01900028E0ED
:10130300FEA3E0FF8F828E83A3A3A3EBF0A3EAF0F7
:10131300A3E9F0900028E0FEA3E0FF8F828E83E52F
:10132300822406F582E5833400F583E004F02290FD
:10133300002AE0FEA3E0FFAA06A9077B01C003C0C1
:1013430002C001900028E0FEA3E0FF8F828E83A3FA
:10135300A3A3E0FBA3E0FAA3E0F975821175830070
:10136300120A41900028E0FEA3E0FF8F828E83A340
:10137300A3A3E0FBA3E0FAA3E0F990002AE0FEA315
:10138300E0FF8F828E83E582240EF582E5833400AD
:10139300F583EBF0A3EAF0A3E9F090002AE0FEA3C3
:1013A300E0FFAA06A9077B01900028E0FEA3E0FF67
:1013B3008F828E83A3A3A3EBF0A3EAF0A3E9F090BB
:1013C3000028E0FEA3E0FF8F828E83E5822406F5EA
:1013D30082E5833400F583E004F022900024EEF0EC
:1013E300A3EFF0900026ECF0A3EDF0900026E0FED2
:1013F300A3E0FF8F828E83E4F0900026E0FEA3E05B
:10140300FF8F828E83A3E4F0900026E0FEA3E0FF2B
:101413008F828E83A3A3E4F07B007A00790090008F
:1014230024E0FEA3E0FF8F828E83EBF0A3EAF0A318
:10143300E9F0900024E0FEA3E0FF8F828E83A3A354
:10144300A3E4F0A3E4F0900026E0FEA3E0FF900005
:1014530024E0FCA3E0FD8D828C83E5822405F582E4
:10146300E5833400F583EEF0A3EFF0900024E0FE73
:10147300A3E0FF8F828E83E5822407F582E5833420
:1014830000F583E4F0900024E0FEA3E0FF8F828E5A
:1014930083E5822408F582E5833400F583120A107C
:1014A30000000000900024E0FEA3E0FF8F828E8303
:1014B300E582240CF582E5833400F583E4F09000A3
:1014C30024E0FEA3E0FF8F828E83E582240DF58264
:1014D300E5833400F583E4F07B007A007900900023
:1014E30024E0FEA3E0FF8F828E83E582240EF58243
:1014F300E5833400F583EBF0A3EAF0A3E9F07B0086
:101503007A007900900024E0FEA3E0FF8F828E83AF
:10151300E5822411F582E5833400F583EBF0A3EA39
:10152300F0A3E9F022150E150E150EA80EEBF20826
:10153300EAF208E9F2150EA80EEFF2E50E24F9F52A
:101543000E7D017C007FA07E00121CD1A80EEEF25E
:1015530008EFF2A80EE2FE08E2FFEF4E70127BFFE7
:101563007A1F7992E50E2407F8E2FF1219C880FE6C
:101573007BFEE50E2408F97A00E92403F9EA340036
:10158300FAA80E0808EBF208EAF208E9F2A80EE25C
:10159300FE08E2FFAA06A9077B01C003C002C0013F
:1015A300E50E2408F8E2FB08E2FA08E2F98B3D8A2B
:1015B3003E893FA80E0808E2FB08E2FA08E2F98B2D
:1015C300408A418942D001D002D003121C76E50E35
:1015D3002405F8EEF208EFF27B007A007900A80EFA
:1015E3000808EBF208EAF208E9F2E50E2405F8E24E
:1015F300FE08E2FFC3EE648094804015E50E2405E7
:10160300F8E2FE08E2FFC3EF94A0EE64809480400A
:10161300127BFF7A1F79BBE50E2407F8E2FF12194C
:10162300C880FEA80EE2FE08E2FFAA06A9077B0116
:10163300E50E2407F8E2FF1219C87D0AE50E240718
:10164300F8E2FF121CA4A80EE2FE08E2FF12176DD7
:10165300E50E240BF50E22150EA80EEDF2150EA8BD
:101663000EEFF2150E9001F0E0FEA3E0FFEF4E70D7
:10167300030217669001F0E0FEA3E0FF8F828E83E2
:10168300E5822407F582E5833400F5837403F0A82B
:101693000E08E2FF7E00EF4E70609001F0E0FEA3C3
:1016A300E0FF8F828E83E582240DF582E58334008B
:1016B300F583E0FFC374FF9FFFA80EEFF2A80E08A7
:1016C30008E2FFA80EE2FEEEC39F40047F00800EF7
:1016D300A80EE2FFA80E0808E2FEC3EE9FFF9001EA
:1016E300F0E0FCA3E0FD8D828C83E582240DF5827E
:1016F300E5833400F583EFF0802DA80E08E2FF7E2A
:1017030000EF64014E7020A80E0808E2FF9001F07C
:10171300E0FCA3E0FD8D828C83E582240DF582E558
:10172300833400F583EFF09001F0E0FEA3E0FF8F38
:10173300828E83E582240CF582E5833400F583E40D
:10174300F09001F0E0FEA3E0FF8F828E83E5822418
:1017530007F582E5833400F583E0FF7E00EF640242
:101763004E70DE050E050E050E22EF4E70030218B5
:1017730070900012E07002A3E07003021870CDEFC6
:10178300CDCCEECCED24FCFDEC34FFFC753D0075B7
:101793003E10853E82853D83E0FAA3E08A3FF54013
:1017A300453F6011D3E5409FE53F9E5008853F3D8F
:1017B30085403E80DDE540453F604A8D828C83A3B2
:1017C300A3E0FAA3E02FFFEA3EFEEF65407003EECD
:1017D300653F7031854082853F83A3A3E0FEA3E08C
:1017E3002404FFE43E8D828C83A3A38FF0120AFEB0
:1017F300854082853F83E0FFA3E08D828C83CFF019
:10180300A3EFF0800B8D828C83E53FF0A3E540F0DE
:10181300853E82853D83A3A3E0FEA3E0253EFFEE44
:10182300353DFEEF2404FFE43EFEEF6D7002EE6CE7
:1018330070308D828C83A3A3E0FEA3E02404FFE435
:101843003E853E82853D83A3A38FF0120AFE8D82DF
:101853008C83E0FFA3E0853E82853D83CFF0A3EF39
:10186300F022853E82853D83ECF0A3EDF022C0E0BB
:10187300C0F0C083C082C0D0C000C001C002C0039A
:10188300C004C005C006C00775D0009001F0E0FF9A
:10189300A3E04F6023AF819001F0E0FCA3E0FDEDF6
:1018A3002405FDEC3400FC8D828C83E0FCA3E0FD79
:1018B3008D828C83A3A3EFF090003DE0F581E50BCF
:1018C3002401F50BE50A3400F50AE5093400F509AE
:1018D300E5083400F508120D87120B7E9001F0E045
:1018E300FFA3E04F602890003DE581F09001F0E018
:1018F300FEA3E0FFEF2405FFEE3400FE8F828E830C
:10190300E0FEA3E0FF8F828E83A3A3E0F581D007DF
:10191300D006D005D004D003D002D001D000D0D05F
:10192300D082D083D0F0D0E0328E418F427E007FD0
:10193300108F828E83E0FCA3E0FD4C7003FEFF2238
:101943008D828C83A3A3E0FAA3E0FBC39542EA95BF
:10195300415008CEECCECFEDCF80D6C3EB9542F508
:1019630044EA9541F543C3E5449410E5439400509C
:10197300198D828C83E0FBA3E08F828E83CBF0A34F
:10198300EBF0ED2404FFE43CFE2274FC2544F54413
:1019930074FF3543F5438D828C83A3A3F0A3E54401
:1019A300F0ED2404FFE43CFEEF2544FFEE3543FE57
:1019B3008F82F583A3A3E541F0A3E542F0EF24046E
:1019C300FFE43EFE22150E150E150EA80EEBF208CF
:1019D300EAF208E9F2150EA80EEFF2A80EE2FF7E76
:1019E30000EF4E702DA80E08E2FB08E2FA08E2F9B8
:1019F30012095EFFEF6048A80E08E2FB0808E2F94F
:101A03002401F218E2FA3400F212095EFF121E36C4
:101A130080D3A80E08E2FB08E2FA08E2F912095E95
:101A2300FFEF601BA80E08E2FB0808E2F92401F2AD
:101A330018E2FA3400F212095EFF121E4880D3E561
:101A43000E2404F50E2290001FEBF0A3EAF0A3E9A5
:101A5300F0900022ECF0A3EDF0C2A9C28C90001F1D
:101A6300E0FBA3E0FAA3E0F9150E150E150EA80E80
:101A7300EBF208EAF208E9F2900022E0FEA3E0FFAD
:101A8300AA06A9077BFF150E150E150EA80EEBF27D
:101A930008EAF208E9F27BFF7A1F79577F001215F3
:101AA30028E50E2406F50E80FE22900039EEF0A301
:101AB300EFF0900039E0FEA3E0FFEF4E604E9000A0
:101AC30039E0FEA3E0FF8F828E83E5822405F58251
:101AD300E5833400F583E0FEA3E0FF121B70EF60A3
:101AE3002B900039E0FEA3E0FF8F828E83E0FBA3FF
:101AF300E0FAA3E0F9900039E0FEA3E0FF8F828EC5
:101B030083A3A3A3E0FCA3E0FD121A4922900030B3
:101B1300EEF0A3EFF0900032ECF0A3EDF090003282
:101B2300E0FEA3E0FFAA06A9077BFF150E150E151D
:101B33000EA80EEBF208EAF208E9F2900030E0FE9C
:101B4300A3E0FFAA06A9077BFF150E150E150EA825
:101B53000EEBF208EAF208E9F27BFF7A1E79B77F0F
:101B630000121528E50E2406F50E80FE229000379C
:101B7300EEF0A3EFF0900037E0FEA3E0FFEF4E702E
:101B8300037F0022900037E0FEA3E0FF8F828E8365
:101B9300A3E0FF900037E0FCA3E0FD8D828C83E09F
:101BA300FEEE2FFFEF14FF7813A6077813E6FFA8C6
:101BB30007E6FF7E00EF64A54E60037F01227F00EE
:101BC30022120B7E9001F0E0FEA3E0FFEF4E602DAA
:101BD30090003DE581F09001F0E0FEA3E0FF8F82ED
:101BE3008E83E5822405F582E5833400F583E0FEE8
:101BF300A3E0FF8F828E83A3A3E0FF8F81D2A9D2BC
:101C03008C22EF4E7008FE7F01ED1D70011C9000C9
:101C130010EEF0A3EFF0A3ECF0A3EDF0900010E0D2
:101C2300FEA3E0FFF5828E83E4F0A3F0ED24FCFD38
:101C3300EC34FF8F828E83A3A3F0A3EDF0227BFF0E
:101C43007A1E79877C1F7DE97F57900009EFF0901A
:101C5300000A7414F012070B7BFF7A00790E7C1FC5
:101C63007DEF7F6B900009EFF090000A7414F0127F
:101C7300070B22853D46853E47853F48EBC540FB24
:101C8300EAC541FAE9C542F97F09784912095EF6C6
:101C93000809E970010ADFF4AB40AA41A942020432
:101CA3000B150EA80EEDF2150EA80EEFF2A80EE21C
:101CB300FF7E00EF4E700AA80E08E2FF121E368068
:101CC30008A80E08E2FF121E48050E050E228E3DDF
:101CD3008F3E120AEC8E3D8F3E12192C8E3F8F40A1
:101CE300EF4E7003FEFF22AE3DAF3E7D00AA3FA93B
:101CF300407B01120AC0AE3FAF4022C0E0C0D075A6
:101D0300D018E59A30E011539AFE7801E59BF2E58D
:101D13009A5404FF7803EFF2E59A30E105539AFDF4
:101D2300C212D0D0D0E032150E150EA80EEEF20876
:101D3300EFF2A80E08E2FF24FFF218E2FE34FFF2EE
:101D4300EF4E6005121E0C80E9050E050E22EFB45E
:101D53000A07740D121D5C740A309811A899B81300
:101D63000CC2983098FDA899C298B811F63099FD25
:101D7300C299F59922C0E0C0D075D018309810C22E
:101D8300987800E599F2A29AE433FF7802EFF230F3
:101D93009904C299C212D0D0D0E032150E150EA804
:101DA3000EEEF208EFF2A80E08E2FF24FFF218E2AB
:101DB300FE34FFF2EF4E70EE050E050E22750B009A
:101DC300750A00750900750800438E805389F07504
:101DD3008A20758CD1D2AF22759850759A1075D719
:101DE300E675D6FF438E15D2AC43AF01D2AFC21214
:101DF30022121E697BFF7A1F79D27F001219C81243
:101E03000F60121C41121BC422750C10750D931523
:101E13000DAF0DEF70F9150CAF0CEF70F2229001BE
:101E2300F6E0FEA3E0FF1200467D007F0112165A82
:101E330080EC22150EA80EEFF2A80EE2FFEFD212ED
:101E4300F599050E22150EA80EEFF2A80EE2FFEF8C
:101E5300D212F59B050E22787FE4F6D8FD750E00AD
:101E6300758192021DF4438E80D2AF121E78120048
:101E730026121DDB227E007F00121D9E7E007F0046
:101E8300121D2A22B2907D027F0112165A80F5227A
:101E93005461736B2064656C6574652E2074617383
:101EA3006B5F703D2570207461736B5F6E616D6550
:101EB3003D2573004E6F7420656E6F756768206DE6
:101EC300656D6F72792073706163652E2066756E20
:101ED300635F6E616D653D2573207661723D25708C
:101EE3000072656164795F7461736B5F6C697374AD
:101EF30000626C6F636B65645F7461736B5F6C69C5
:101F030073740068696464656E5F7461736B5F6C9E
:101F1300697374005461736B20737461636B206D18
:101F2300696E696D756D2031362E207461736B5F38
:101F33006E616D653D257320737461636B5F6C65C2
:101F43006E3D256275004F535F437265617465543E
:101F530061736B00537461636B206F766572666C9B
:101F63006F772E207461736B5F6E616D653D2573B2
:101F7300207461736B5F703D2570004F535F49643C
:101F83006C655461736B004F535F496E6974004E07
:101F93006F7420656E6F756768206D656D6F7279FC
:101FA30020737061636520666F72205354524255EB
:101FB300465F4C454E2E0A005354524255465F4CE1
:101FC300454E20746F6F20736D616C6C2E0A005345
:101FD30054524255465F4C454E20746F6F20736DCB
:101FE300616C6C2E0A007461736B31007461736BE6
:021FF3003200BA
:00000001FF
